:0200000270008C
:107000000000012009730700317307003373070084
:10701000357307003773070039730700000000005D
:107020000000000000000000000000001DBA070082
:107030003D730700000000003F7307004173070025
:107040004373070043730700437307006189070018
:10705000437307004373070043730700437307003C
:10706000437307004373070043730700437307002C
:10707000437307004373070043730700437307001C
:1070800059960700437307004373070043730700D3
:10709000437307004373070021BC070043730700D5
:1070A00043730700437307004373070043730700EC
:1070B0004373070043730700000000000000000056
:1070C00043730700437307004373070043730700CC
:1070D0000993070043730700437307000000000093
:1070E00000000000000000000000000000000000A0
:1070F0000000000000000000000000000000000090
:10710000000000000000000000000000000000007F
:10711000000000000000000000000000000000006F
:10712000000000000000000000000000000000005F
:10713000000000000000000000000000000000004F
:10714000000000000000000000000000000000003F
:10715000000000000000000000000000000000002F
:10716000000000000000000000000000000000001F
:10717000000000000000000000000000000000000F
:1071800000000000000000000000000000000000FF
:1071900000000000000000000000000000000000EF
:1071A00000000000000000000000000000000000DF
:1071B00000000000000000000000000000000000CF
:1071C00000000000000000000000000000000000BF
:1071D00000000000000000000000000000000000AF
:1071E000000000000000000000000000000000009F
:1071F000000000000000000000000000000000008F
:107200000348044B834202D0034B03B11847704735
:10721000F8590020F8590020000000000548064BEE
:107220001B1AD90F01EBA301491002D0034B03B184
:1072300018477047F8590020F85900200000000056
:1072400010B5064C237843B9FFF7DAFF044B13B1AE
:107250000448AFF300800123237010BD0C5A0020B6
:107260000000000090DB070008B5054B1BB1054985
:107270000548AFF30080BDE80840FFF7CFBF00BF6F
:1072800000000000105A002090DB0700A3F5803AB0
:10729000704700BF174B002B08BF134B9D46FFF7ED
:1072A000F5FF00218B460F461348144A121A05F0C9
:1072B0006FFE0E4B002B00D098470D4B002B00D0DB
:1072C00098470020002104000D000D48002802D03E
:1072D0000C48AFF3008005F04BFD2000290001F0C1
:1072E000AFFB05F033FD00BF000008000000000008
:1072F00000000000000001200C5A002078860020C9
:1073000000000000000000000649074A074B9B1AD6
:1073100003DD043BC858D050FBDC00F03DF8FFF71C
:10732000B9FF0000F4DB0700685900200C5A002068
:10733000FEE7FEE7FEE7FEE7FEE7FEE7FEE7FEE725
:10734000FEE7FEE74FF08053D3F83001421C04BF44
:107350004FF0704393F8E00F831F58425841704735
:107360004FF0704393F8E02F062A09D1D3F8E83F95
:10737000C3F30313033B042B02D8024AD05C7047CB
:10738000002070477FD00700024AD2F80034002B5B
:10739000FBD0704700E0014010B5FFF7D3FF40B1CC
:1073A0004FF08053944AD3F82433C3F30423C2F834
:1073B0004035FFF7D5FF10B1904B914A5A67FFF760
:1073C000C1FF48B14FF080534FF08042D3F84432B0
:1073D000C3F34233C2F83C35FFF7C2FF30B1894AEC
:1073E000D2F8FC3023F08073C2F8FC30FFF7AAFF1C
:1073F00040B14FF080430022C3F80C21C3F81021A4
:10740000C3F83825FFF7ACFF20B14FF080430322CB
:10741000C3F8A025FFF7A4FF60B17B4B0522C3F89A
:1074200010260122C3F888260022C3F818263F221E
:10743000C3F814264FF08053D3F83021511C09BFF4
:107440004FF07043D3F8343193F8E02FD3F8E83F8E
:1074500008BFC3F30313062A4DD1033B042B03D803
:107460006A4AD35C002B46D04FF08052684BD2F86A
:107470000414C3F82015D2F80814C3F82415D2F860
:107480000C14C3F82815D2F81014C3F82C15D2F830
:107490001414C3F83015D2F81814C3F83415D2F800
:1074A0001C14C3F84015D2F82014C3F84415D2F8C0
:1074B0002414C3F84815D2F82814C3F84C15D2F890
:1074C0002C14C3F85015D2F83014C3F85415D2F860
:1074D0003414C3F86015D2F83814C3F86415D2F820
:1074E0003C14C3F86815D2F84014C3F86C15D2F8F0
:1074F0004424C3F87025FFF725FF48B14FF08053AF
:107500004FF08042D3F8583203F04F03C2F8E43E04
:10751000FFF718FF48B14FF08043D3F80024D2079B
:1075200044BF6FF00102C3F800244FF08053D3F83A
:107530003021062A0ED1D3F83431033B042B02D874
:10754000344AD35C33B1344AD2F83C3743F48063D5
:10755000C2F83C372B4AD2F8883043F47003C2F8A3
:107560008830BFF34F8FBFF36F8F4FF08053D3F846
:107570003021062A0FD1D3F83431033B042B02D833
:10758000264AD35C3BB14FF01023D3F808224FF0CA
:107590008043C3F858254FF01023D3F80022002A67
:1075A00003DBD3F80432002B22DA1D4901234FF00C
:1075B0001020C1F804351524FFF7E6FEC0F800429C
:1075C000FFF7E2FEC0F80442FFF7DEFE0023C1F839
:1075D0000435FFF7D9FEBFF34F8F0A49114BCA6834
:1075E00002F4E0621343CB60BFF34F8F00BFFDE7AF
:1075F0000D4B0E4A1A6010BD0030014000C007401C
:107600000DF0ADBA00ED00E0005000407AD0070068
:1076100000C0004075D007000010004070D0070087
:1076200000E001400400FA05685900200090D003F2
:107630004B1C30B5DB00044612F003009BB20DD1A9
:10764000074D2A601A44074B1A60074B1870074B06
:107650001870074B1C80074B198030BD0720FCE7D2
:10766000345A0020305A00202C5A00202D5A002075
:107670002A5A0020285A00202DE9F347DFF8B48069
:10768000B8F800308B4206460C4617464AD3002510
:107690000DF107008DF8075000F080F8224B234AC7
:1076A000DFF894C01B78BCF800C010786045C1B208
:1076B00038BF0131DBB238BFCDB2AB429DF8070015
:1076C00005D100F08FF8042002B0BDE8F0871578EE
:1076D0001178DFF86890CBB28C4586BF0133DBB2FE
:1076E0000023EDB2137000F07DF8D9F800304FEAB6
:1076F000C50A43F8357003EBC50286B17CB10C4B6B
:10770000B8F800001B68224605FB0030314605F042
:1077100053FBD9F8003053449C800020D4E7002369
:107720009380FAE70920CFE72D5A00202C5A002039
:10773000305A00202A5A0020285A0020345A0020AB
:1077400070B5104C104D22782B789A4200D170BD44
:107750000E480F4A2378126806880E4802EBC301D0
:10776000006852F83320898803FB060090470A49D5
:1077700022780988D3B2914286BF0133DBB200235D
:107780002370E0E72D5A00202C5A00202A5A0020AE
:10779000345A0020305A0020285A002070B5EFF3E8
:1077A000108672B60C4A9468012384B993600B4B1F
:1077B0000B4DD3F8801029401160C3F88050D3F8E6
:1077C000841051604FF0FF32C3F8842023460370C9
:1077D00006B962B670BD00BF385A002000E100E073
:1077E000FC06FFBD10B5084B9A685AB150B9EFF3CB
:1077F000108172B6054A1C6814605C685460986019
:1078000001B962B610BD00BF385A002000E100E0A7
:1078100030B53AB11368DB430A4D0144884204D1C4
:10782000D84330BD4FF0FF33F6E710F8012B53403B
:10783000082213F0010418BF2C46013A84EA5303CE
:10784000F7D1EBE72083B8ED10B561B1B2FBF3F4EB
:1078500003FB1424A4B244B9C0E9001484608281FB
:10786000C381204610BD0E20FCE70920FAE782B054
:1078700050E8022FC188B2EB324F4FF0000317BF20
:1078800092B241EA014142EA014104E04268B2EBAE
:10789000324F08BF012340E80212002AE8D18DF8D8
:1078A00007309DF80730002B0CBF1120002002B0DC
:1078B000704737B550E8013F9DB2C489254484899B
:1078C000A54228BF2D1B0489A54202BFBFF32F8FFD
:1078D000002207E0C5EA030540E80154002CE9D185
:1078E0004FF001028DF803200193019A0A609DF880
:1078F000031001F0FF0321B1006810FA82F003B019
:1079000030BD1846FBE70A884B889A4209D150E8F7
:10791000012FC2EA024240E80123002BF7D10120E7
:1079200070470020704737B550E8023F1FFAA3F5B3
:10793000C488A54202BFBFF32F8F00220DE0C48987
:1079400025448489A54228BF2D1BC3EA054540E88C
:107950000254002CE8D14FF001028DF8032001936E
:10796000019A0A609DF8031001F0FF0321B100683D
:1079700000EB124003B030BD1846FBE70A884B8885
:107980009A4209D150E8022FC2EA224240E802237B
:10799000002BF7D1012070470020704710B5034637
:1079A00053E8000F40EA010243E8002494F0000F7E
:1079B000F6D110BD10B5034653E8002F02EA0100CE
:1079C00043E8000494F0000FF6D110BD0121FFF749
:1079D000E5BF0021FFF7EEBF10B590B1D0E901235C
:1079E00001689B1ADBB20A60013BDBB2FF2B026825
:1079F00002D10020107110BD11684C1C14600B7076
:107A0000F2E70E20F7E737B5044600250DF1070031
:107A10008DF80750FFF7C2FE2268616813688B4239
:107A200010D9591E1160216813F8010C258AE368EA
:107A3000A2680C68121B0C79D2B2944238BF0A714A
:107A400005FB00359DF80700FFF7CCFE284603B084
:107A500030BD37B5054600230DF107000C468DF803
:107A60000730FFF79BFE2A681368591C1160EA680B
:107A7000A41A2A8AB4FBF2F41C709DF80700FFF7E1
:107A8000B1FE03B030BD01600B681146184710B459
:107A90000468E468A4465DF8044B604710B40468C9
:107AA0002469A4465DF8044B6047000070B550B9E6
:107AB0000E4D0F4C0026641B1423B4FBF3F4B442A8
:107AC00008D1002010E00368002BF1D0BDE8704021
:107AD000DB6918472B6813B901361435EFE7DB690A
:107AE000284698470028F7D070BD00BFF8590020FD
:107AF0000C5A0020014B436000207047A4D00700BF
:107B00000846704700207047024B1868003818BFBD
:107B100001207047445A002008B50248FFF759FF7A
:107B2000002008BD445A002008B510461A4605F04A
:107B300043F9002008BD00002DE9F041804686B0E1
:107B400011480F4616461D46FFF740FF0446C8B9C8
:107B5000AA083146384600F0CFFB0B48FFF739FF43
:107B6000D8F8083053B101228DF800200C9A059204
:107B7000CDE90147CDE9036568469847204606B040
:107B8000BDE8F0811124F9E7445A00202DE9F043C3
:107B9000814687B014480E4615469846FFF716FFF3
:107BA0000446F0B90746BD4215D10F48FFF711FF53
:107BB000D9F808305BB102228DF800200022CDE90F
:107BC0000126CDE90325CDF8148068469847204664
:107BD00007B0BDE8F08306EB073000F05FFB01372C
:107BE000E1E71124F3E700BF445A002029DF704782
:107BF00028DF704770B50668B36886B004460D4646
:107C000073B114220021684605F0C2F9A3680593F8
:107C10002379019533B1012B0ED0B368684698479C
:107C200006B070BD01238DF8003023690293E3682C
:107C3000039363690493F0E702238DF80030E3684F
:107C40001B030293F5E708467047002070470000C9
:107C5000024B187A003818BF01207047505A002094
:107C6000034B187A0122B0FA80F05A744009704729
:107C7000505A002008B510461A4605F09DF800201D
:107C800008BD000008B514220021044805F080F961
:107C90000348FFF7ECFD002008BD00BF505A00204C
:107CA000645A002010B5094C094B43602046FFF789
:107CB0008DFE48B903F09AFF064920741C2306483C
:107CC0004FF4EE72FFF7C0FD002010BD505A0020A7
:107CD000D0D00700745A0020645A002038B5224CD6
:107CE000224D237A3BB922492248FFF71CFE286027
:107CF00008B9606038BD022323722B681A7972B10B
:107D0000012A22D028680321FFF774FF0023237281
:107D10006360BDE8384016491648FFF72FBED3E927
:107D20000520121A142AD3E9031328BF142292083B
:107D3000012A014438BF01221844FFF757FF50B110
:107D40001128DFD101232372D4E7D3E903031844B8
:107D5000FFF74EFFF3E7237C002BCBD1BDE8384083
:107D6000022000F009B800BF505A00204C5A0020F1
:107D7000485A0020645A002038B5234C237A024622
:107D8000002B3FD0022B09D1032824D01F4B1868A9
:107D90000023E36003793BB1012B16D0637C6BBBFE
:107DA000BDE83840FFF79ABFD0E90513CD1A142D6E
:107DB00094BF5B19143383619942EFD10023022AE7
:107DC000237214BF0D21194611E003694169013383
:107DD00003618B42F1E7E3680133082B01D8E360CC
:107DE000DCE70023E3602372084B18680D21FFF7DE
:107DF00001FF07490748FFF7C1FDCFE7BDE838405D
:107E000003F0E4BE38BD00BF505A00204C5A002099
:107E1000485A0020645A0020831E012B01D8FFF726
:107E2000ABBF704700F0FD03012B08D1044B0022CB
:107E30005A74421E504250411874FFF74FBF7047AA
:107E4000505A002008B50648FFF7C0FD30B9054B71
:107E50005B7C1BB9BDE80840FFF740BF08BD00BF11
:107E6000545A0020505A00202DE9F34180460D4617
:107E70000F4801A916461F46FFF71BFD0446A8B18F
:107E80001C22002105F084F82D0B0123237101A988
:107E90000748C4F80080A760E5606661FFF733FD1E
:107EA000FFF7D0FF002002B0BDE8F0810420FAE720
:107EB000645A00202DE9F74381468846104801A9FD
:107EC00017461E46FFF7F5FC0446B0B11C22002100
:107ED00005F05EF800250A9BA36001A9C4E90378B8
:107EE00007482571C4F800906661FFF70CFDFFF7A5
:107EF000A9FF284603B0BDE8F0830420FAE700BFDD
:107F0000645A002001600B6843604A68934208BFCE
:107F1000002343607047436843B1026891680B4493
:107F200043605268934204BF0023436070470000DF
:107F30002DE9F04FC9B008AA01F1400514464B786D
:107F40000E781B0443EA0663CE7833438E780431FF
:107F500043EA06238D4244F8043BF0D11024916B90
:107F600016464FEAF14383EA714383EA9123716A2B
:107F7000366852F8045F31440B444FEAB54181EA58
:107F8000F51181EAD50101340B44402CD363E6D1CD
:107F9000D0E914E30093836D0193C36D0293036EE4
:107FA0000393436E0493836E0593C36E0693DDE9DA
:107FB000057ADDE9031CDDE901592B4B009E07938F
:107FC00074464FF00008079A08AB52F804BB53F808
:107FD000283007924FEAF12282EAB1129B4482EAEA
:107FE00071625A4427EA010301EA0C0B83EA0B038E
:107FF0001A44524486EA05034FEA743A06EA050B2E
:108000008AEAB40A23408AEAB45A83EA0B0308F1E5
:1080100001085344B8F1400F02EB090B1344A94681
:10802000BA4619D173440365009B23444365019B01
:1080300033448365029B2B44C365039B5B44036607
:10804000049B0B444366059B63448366069B3B4449
:10805000C36649B0BDE8F08F674635468C46264674
:1080600059461C46AFE700BFDCD0070030B5E0B191
:108070000F4A104900240025C0E91245C0E9141236
:108080000D4C0E4A0E4DC0E916420E4AC0E9185278
:108090000D4A826602F17452A2F523020023A2F671
:1080A00092420364C266184630BD0E20FCE700BF52
:1080B00085AE67BB67E6096A72F36E3C3AF54FA579
:1080C0007F520E518C68059BABD9831F70B50C464F
:1080D00040B12AB9A5180026AC4205D1002070BDD8
:1080E0000029F7D10E20FAE7036C14F8012BC254D3
:1080F0000133402B0364EFD10146FFF719FFD0E9AC
:10810000123213F5007342F10002C0E91232066424
:10811000E2E770B50D461646044600287CD00029DB
:108120007AD0026C8021372A815400EB020342D8B6
:1081300000F1370200219A423AD1D4E91223216C8E
:108140000820E1FB0023C4E9122312BAE26323FAF8
:1081500000F284F83B3084F83A201A0C1B0E2146BA
:1081600084F8392084F838302046FFF7E1FE691E94
:108170009EB30023E26EDA4001F8012FA26EDA40CE
:108180000A71626EDA400A72226EDA400A73E26D98
:10819000DA400A74A26DDA400A75626DDA400A7636
:1081A000226DDA400833202B0A77E3D1002070BD1E
:1081B00003F8011FBFE7C0F101010020CA183F2AE0
:1081C00008D921462046FFF7B3FE3822002104F0EB
:1081D000DFFEB2E703F8010FF0E71823226DDA4063
:1081E00001F8012F626DDA400A71A26DDA400A725D
:1081F000E26DDA400A73226EDA400A74626EDA4087
:108200000A75A26EDA400A76E26EDA40083B13F194
:10821000080F0A77E2D1C9E70E20C8E743689B68D8
:10822000184708B5436808305A7900F082F90020F1
:1082300008BD2DE9F0430C469BB00846984617460A
:10824000FFF7ECFFD4F8049099F80550454528BF96
:10825000454606462A46394602A800F05FF999F8D5
:10826000052022990AA800F064F900960AAB2A4674
:1082700002A904F1080004F011FC002848F2425061
:1082800018BF00201BB0BDE8F0830000024AD2F8FE
:108290000034002BFBD0704700E001400A4908B5CC
:1082A0000223C1F80435BFF36F8FBFF34F8FC1F8BE
:1082B0000805FFF7EBFF0023C1F80435BFF36F8F0C
:1082C000BFF34F8F08BD00BF00E0014010B5094C5F
:1082D0000123C4F80435BFF36F8FBFF34F8F0160E4
:1082E000FFF7D4FF0023C4F80435BFF36F8FBFF34B
:1082F0004F8F10BD00E0014070B50E4E01231546B2
:10830000C6F80435BFF36F8FBFF34F8F0024AC4224
:1083100007D10023C6F80435BFF36F8FBFF34F8F2B
:1083200070BD51F8243040F82430FFF7AFFF01341E
:10833000EDE700BF00E00140034620B131B100206D
:10834000C1E90003704748F21050704748F21350DB
:10835000704730B1036848F240508B4208BF00209C
:10836000704748F21050704728B148F211509142BE
:1083700008BF0020704748F21050704770B506469D
:108380000C461D46FFF7D8FF50B9B3794AB1AB424E
:108390000AD111462046FFF744FF08B9044B236079
:1083A00070BD48F21050FBE748F21150F8E700BFEB
:1083B0007052464D2DE9F0470C4606460F492046BF
:1083C000DDE9088915461F46FFF7C3FFA0B96368BA
:1083D0005A79494652004046FFF7C6FF60B94DB191
:1083E000CDF820803B462A4621463046BDE8F0477E
:1083F000FFF71FBF48F21050BDE8F0877052464D9E
:1084000010B5044638B149B141600B68984708B9C6
:10841000044B236010BD48F20150FBE748F21050B6
:10842000F8E700BF6E524648F0B4134648B10768FB
:10843000094EB7420AD161B12AB14368F0BC5B680A
:10844000184748F201531846F0BC704748F20253EF
:10845000F9E748F21053F6E76E524648F0B460B1BF
:1084600007680C4EB7420CD171B143681568DC68DF
:10847000A5420CD3F0BC9B68184748F20150F0BCF1
:10848000704748F20250FAE748F21350F7E748F213
:108490001450F4E76E5246482DE9F0410446DDE9F8
:1084A000067815461E46FFF7ABFF60B932462946EF
:1084B0002046FFF7B9FF30B9424639462046BDE8AD
:1084C000F041FFF7CBBFBDE8F0810000F8B50A4FDF
:1084D0000A4C0B4EE41B0123E40833700025A5422F
:1084E00003D1022333700020F8BD57F83530984788
:1084F0000028F9D10135F2E794DB070094DB07008F
:10850000505C002001390144814200D27047037859
:108510000A7800F8012B01F80139F5E7013A024425
:108520000139824200D2704711F8013F02F8013947
:10853000F7E770B516460D46FFF7F0FF3246A9196A
:108540003044BDE87040FFF7E9BF38B50D4604463A
:10855000FFF7D8FF29466019BDE83840FFF7D2BFC2
:108560007FB503788DF804304368029383688DF8F3
:108570000C30C36804930369064A8DF81430064B27
:1085800001A853F8213052F82110984707B05DF840
:1085900004FB00BF545C0020605C0020F0B5054681
:1085A000174615F804CB124A42F82C70114A42F8CB
:1085B0002C30114B0C460FCB85B06E4686E80F0071
:1085C0002368009323798DF8053063798DF80630A0
:1085D000A3680293002FA389084AADF80C3008BFA6
:1085E0003A4663463146284600F00AF805B0F0BD29
:1085F000605C0020545C0020E8D107006185070022
:108600002DE9F0410679634C2427774304EB070CEE
:108610009CF81C50002D40F0BB800568E251CCF85E
:1086200004300B7B91F800C0012B4FF0A0474FF0B6
:10863000010303FA0CF394BFC7F80C35C7F80835EB
:108640000B784FF0A04C03F5E07301274CF8237032
:108650004B78FF2B1FBF9F40CCF80C7503F5E077DC
:108660004FF0030E18BF4CF827E08F7808BF4FF08B
:10867000FF33FF2F1FBF07F5E07E4FF0A04C4FF0F8
:1086800004084CF82E804FF0240C0CFB064C91F89B
:1086900002E08CF820E091F803E08CF81FE008BFBE
:1086A0004FF0FF37BEF1FF0F1CD091F804804FF060
:1086B000010C0CFA0EFC4FF0A04EB8F1000F5ED08A
:1086C000CEF80CC591F803C00CF5E07C4FF0030820
:1086D0004EF82C804FF0240C0CFB064C91F804E073
:1086E0008CF81EE091F800C0C5F808C5C5F80C3537
:1086F000C5F810758B68C5F824354B7B0F7B003BA4
:1087000018BF0123022F3DD0032F3ED0012F01D1EE
:1087100043F00203C5F854358B79C5F8C0350723FB
:10872000C5F8003512B303684A7943F30733002BC9
:10873000AEBF03F1604303F00F0317494FEA421243
:10874000A8BF03F56143D2B2B4BFCA5483F8002373
:10875000036843F30733002B08DB0122590903F0B8
:108760001F0302FA03F30D4A42F82130242303FBCE
:1087700006440020012360772377BDE8F081CEF81E
:1087800008C59FE743F00403C4E743F00603C1E7CD
:108790000820F2E76C5C002014ED00E000E100E04E
:1087A00030B50179214B24224A439A5892B102688C
:1087B00042F30732002A0DDB5409012502F01F02A3
:1087C000954004F120021A4C44F82250BFF34F8F19
:1087D000BFF36F8F0268242048431C18185878B1E3
:1087E0001448C2F80803607F50B101205061D2F8EC
:1087F00004010028FBD0242000FB01300024447732
:10880000242000FB013090F82000FF281FBF00F556
:10881000E0704FF0A044022544F820500020C2F838
:108820000005242202FB0133187730BD6C5C002068
:1088300000E100E0520108002DE9F3410779474EBD
:1088400024237B431546F2180C46517F86460029A7
:1088500040F08180F35823B115F0140F04BF0123B9
:10886000537794E80F004FF0240C0CFB076C0CF1CD
:108870000C0888E80F009CF81F20FF2A08D09CF8FD
:108880001E10012393404FF0A042D1B1C2F8083529
:108890002168DEF8003021B101F06042B2F1005FE2
:1088A00006D1A26882B102F06042B2F1005F0BD043
:1088B000242303FB076300225A77102002B0BDE88F
:1088C000F081C2F80C35E3E76268C3F84415C3F8D9
:1088D0004825D4E90212C3F83415C3F8382500221C
:1088E000C3F81821D3F818210192019A15F001025A
:1088F00018BF0122C3F8502515F0020218BF01224B
:10890000C3F840252A075CBF01221A6124227A435A
:10891000B258B2B9D3F81821002AFBD0242303FBA4
:108920000766F27FFF2A07D0B17F012393404FF003
:10893000A04219B1C2F80C350020BFE7C2F80835D3
:10894000FAE715F0040F4FF0400214BFC3F80823F4
:10895000C3F80423F0E71120B0E700BF6C5C0020EF
:10896000124BD3F8182182B0EAB10022C3F81821C3
:10897000D3F818310193019B0D4BD97FFF2907D004
:10898000987F01228A404FF0A04148B1C1F80C25E0
:1089900000225A771A72D3E90021064802B0104724
:1089A000C1F80825F4E702B0704700BF003000406E
:1089B0006C5C0020745C0020BFF34F8F0549064BB0
:1089C000CA6802F4E0621343CB60BFF34F8F00BF6D
:1089D000FDE700BF00ED00E00400FA05032808B53C
:1089E00019D001D838B108BD05380228FBD8BDE838
:1089F000084000F078B900F04EF900F049FA0A4A50
:108A00001221192000F079FA084ABDE80840232114
:108A1000192000F072BA00F03BFA034A1221192023
:108A200000F06BFA024AF0E738D2070043D20700A1
:108A30004ED2070008B5FFF7BFFF08B5FFF7BCFF30
:108A400008B500F0D3FD4FF48051002000F093FBF7
:108A500008B1FFF7B1FF0548C0F5FC2100F08BFB22
:108A60000028F6D1024800F0ABFAF2E700700700E8
:108A7000DD890700014B01225A707047905C00208D
:108A800038B5054D044645F001054FF47A40A84736
:108A9000013CFAD138BD00BF60D207002DE9FF418B
:108AA0001E4C237807460D4603F0FF06002B33D0FB
:108AB0000A4604F11400FF2104F06AFA04F11408D4
:108AC00027B12A463946404604F076F900224FF491
:108AD000A043134862706946CDE90085CDE90222C2
:108AE0006380FFF7A9FE38B963880246617851B107
:108AF00002B1638063885BB104B0BDE8F081013BE3
:108B00009BB23246F2E7002BF9D1002AF2D0638003
:108B1000012363700D20EFE70820EDE7905C002053
:108B2000985C00202DE9F041264F3B7888B003F097
:108B3000FF08EBB9244C94E80F006E4686E80F005E
:108B400010344FF48C724146384604F021FA94E810
:108B50000F0004AD3C1D85E80F0084E80F001B4AA0
:108B6000434631462046FFF719FD08B901233B7003
:108B70004FF0A0430322C3F87427C3F87027C3F84B
:108B80007827C3F87C27C3F84827C3F86C274FF031
:108B90000052C3F808254FF08052C3F80C254FF05F
:108BA0008042C3F80C254FF00042C3F808254FF46B
:108BB0008022C3F808254FF00062C3F8082508B0EA
:108BC000BDE8F081905C002068D20700758A07003C
:108BD00010B5124C2378A3B104F10800FFF7E0FDB3
:108BE0004FF0A0430222C3F86C270021C3F8682786
:108BF0002046C3F86427C3F878274FF48C7204F03A
:108C0000C7F94FF0A0430222C3F87427C3F87027B6
:108C1000C3F87827C3F87C2710BD00BF905C002004
:108C200038B54FF0A0444FF000553220FFF728FF31
:108C30006420C4F80855FFF723FFC4F80C557820CA
:108C4000FFF71EFFC4F8085538BD37B54FF0A044F4
:108C50004FF000654FF080538DF807000121C4F8F4
:108C60000C550DF10700C4F80C35FFF717FFC4F8D9
:108C7000085503B030BD38B54FF0A0444FF0006543
:108C80004FF08053C4F80C55C4F80835FFF706FFC1
:108C9000C4F8085538BD08B5FFF744FFFFF7C0FF1B
:108CA000E220FFF7D2FFA220FFF7CFFFA020FFF7BF
:108CB000CCFFC820FFF7C9FF2320FFF7C6FF8120A4
:108CC000FFF7C3FF3220FFF7C0FF2F20FFF7BDFFE4
:108CD000B020FFF7BAFFAF20FFF7B7FFBDE80840AD
:108CE000A620FFF7B2BFFFF773BF00002DE9F04FDA
:108CF0008BB01546CA18DDF85090064600F0C280C9
:108D00003F2900F2BF80402B00F2BC80E84200F017
:108D1000B980300600F1B680802D00F2B38001F0FA
:108D200007000290D81DC010402A06904FEAD107D4
:108D300036DDC1F147010023C1F3C704039315FBDE
:108D400004FA504604F046F852460021804604F0EA
:108D50001FF9029BC3F108030493049AFF2343FA0B
:108D600002F2D2B20792494A06EBC710821800926B
:108D7000621E0892039A93400593DB43B9F1000FFA
:108D800008BFC1464FF0000E09935FFA8EF39D4273
:108D900053D9009B019300211FFA8EFC8B463CE0C7
:108DA00002F007020392029A9C180734E408C6E70F
:108DB000069B8B423ADD19F80C20029B049802FABC
:108DC00003F30241DBB2D2B208EB0C0A89BB009874
:108DD00090F800B0079800EA0B0B43EA0B030898E1
:108DE0008AF8003088420DD1039858B109980340A1
:108DF000019890F800B0059800EA0B0B43EA0B03CA
:108E00008AF8003001989AF8003000F8803BAC44B2
:108E1000019001311FFA8CFC9346CBB29C42C7D81B
:108E2000009B01330EF1010E0093AEE700221346C2
:108E3000CAE743EA0B03DBB2D1E74FEA16193C4419
:108E400049F01009C246E4B206F00F06BC4205D153
:108E500040460BB0BDE8F04F03F0C4BF07F0070079
:108E60005038C0B2FFF7F1FE4846FFF7EEFE30463D
:108E7000FFF7EBFE013750462946FFF7FCFEFFB235
:108E8000AA44E3E70BB0BDE8F08F00BFA85D002067
:108E900013B5084C4FF480620021204604F078F8A6
:108EA00000210094402380220846FFF71FFF02B0F4
:108EB00010BD00BFA85D002007B5064B203AD2B216
:108EC00003EB0213009308221023FFF70FFF03B0F8
:108ED0005DF804FB88D20700F8B504460F46154636
:108EE000D618B54200D1F8BD204615F8012B3946F9
:108EF0000834FFF7E1FFE4B2F3E770B5054610462A
:108F00000E46144604F010F82246C3B231462846F5
:108F1000BDE87040FFF7E0BF008800F00100704737
:108F200041DF7047014B01221A707047C86500206D
:108F3000BFF34F8F0549064BCA6802F4E062134342
:108F4000CB60BFF34F8F00BFFDE700BF00ED00E037
:108F50000400FA05024B034800221A7001F07ABFA0
:108F6000C8650020318F0700042810B5044609D8D1
:108F7000022811D816D00D4B1B68B3B12046BDE8AE
:108F800010401847831F012BF5D8094B09480022D0
:108F90001A7001F05FFFEEE707494FF4202000F060
:108FA000F5F9E8E701F0A8FEE5E710BDCC65002083
:108FB000C8650020318F0700558F070000207047DB
:108FC00038B5574B1860002001F05AFF04460028BE
:108FD00040F0A18000F0B2FA012800F0978002284A
:108FE00000F09B80002840F096804FF080424D4C6E
:108FF000D2F80014256ACB0333D54FF48031C2F880
:109000000014012D3AD04FF4202400F033FB464ADF
:1090100020211820FEF70CFB08B1FFF70EFD4FF0E2
:109020008043D3F81C2502F0F902B12A02BFD3F81D
:109030001C2502F04E02C3F81C25FFF7BFFF0028D5
:1090400069D12046394900F0A1F9394801F026F8E4
:10905000002860D100F034FBFEF772FBFFF760FFE1
:10906000F8E7D2F8201501F0F901A9292ED1D2F89C
:10907000201501F05601C2F82015C2E74FF4405305
:109080005A682C4B9A421AD001F0ACFFA26994F8AE
:10909000A132012B25D14FF08043D3F81C3503F0CA
:1090A000F903B12BAFD001F049FF002833D1224B97
:1090B0001870224801F0CEFE00F048F82BE094F83A
:1090C0006032626B012BDFD0002512E0012D9AD1B6
:1090D0004FF440525168174A914209D001F082FF83
:1090E000A2690146164802F04FFA0028D3D18AE758
:1090F000626B14484FF4805102F046FA002882D087
:1091000001F070FFA269002DEBD1C0E70A4B0E48B9
:109110001C7001F09FFE032038BD4FF4702474E7EB
:10912000CC6500209C7D0020A8610020558F0700A1
:10913000698F0700DBE5B151C8650020258F070066
:109140003D800020FC7F0020318F070008B5074BD1
:109150004FF0FF32C3F88020C3F8802101F0E4FB18
:10916000BDE808404FF4805000F032B800E100E064
:1091700080F3088808470346C1F30B00F0B520BB15
:10918000B3F5FE2F21D80139090B1A0B01EB13316E
:1091900001264FF0804402F01F03550906FA03F33D
:1091A000032D05D8DFE805F002080B0EC4F80036E1
:1091B00001329142EFD2F0BDC4F80436F8E7C4F8AA
:1091C0001036F5E7C4F81436F2E70720F3E700009D
:1091D00010B504461448C0F5FE21FFF7CCFF08B1D6
:1091E000FFF72BFC01F0FEFE104B9B6903F6FF73AB
:1091F00023F47F6323F00F0319180020FFF7BBFF50
:1092000008B1FFF71AFCEFF305830023D4E900014E
:1092100083F3148883F3108883F3118883F313880E
:10922000BDE81040FFF7A4BF007007009C7D002040
:109230001FB518490B7853BB4FF08043A024D3F8D7
:109240001824D2035CBF01229A60134B0022C3F89A
:109250000021D3F8000103900398C3F84021D3F80C
:10926000400102900298C3F84421D3F844010190D0
:1092700001980A4880F82443102444600220C3F86F
:10928000082501229A601A60C3F804030A7004B02A
:1092900010BD00BFD06500200040024000E100E0AA
:1092A00037B56FF07F42154C057BD4F804358A4200
:1092B00028BF0A46891A13444A1E942A23F07F4382
:1092C00005F5A8729CBF963B9631416044F8223068
:1092D0000B4B4FF4F86043F001039847094BAA0089
:1092E000134400221A601B680193019B4FF48033E2
:1092F000AB40C4F8043303B030BD00BF00400240AF
:1093000080D807004041024073B51B4BD3F80421BD
:1093100052B11A490A6801320A600022C3F80421D6
:10932000D3F804310093009B154C164D164E2B6854
:1093300083B100232B602B68227B0193019B4FF4A8
:10934000803393400C4AC2F80833616851B120461B
:10935000FFF7A6FFB54204F1100401D102B070BDC1
:109360003546E4E7A16811B12046FFF799FF23686D
:10937000002BEFD09847EDE700400240D465002075
:1093800074590020404102404441024070B50B4BEB
:109390001D682A7B4FF480339340094A0E46C2F879
:1093A0000833044640B1FFF743FF2E6021462846AC
:1093B000BDE87040FFF774BF70BD00BF705900205A
:1093C0000040024070B5074B1D680E46A860044679
:1093D000FFF72EFF2E6021462846BDE87040FFF7BC
:1093E0005FBF00BF6C590020014B01221A7070470B
:1093F000D865002081422DE9F74F04460F461546F7
:1094000004D10023184603B0BDE8F08F3E1B360B95
:1094100002F6FF7800F02EF9082E28BF0826330345
:10942000DFF864B001934FEA1838002DE9D04645C3
:109430002CBFC246B2464FF000025146204634BF10
:10944000DDF80490A94601F039FA03460028D9D185
:1094500009F1030222F003023946204601F020FA06
:1094600003460028CED1DBF830304B44CBF8303007
:1094700001F0F6FCA8EB0A08A5EB09054C444F44A3
:1094800003460028D1D0BDE79C7D002010B501F037
:10949000CDFD114A916C01F500535C680F4B9C4265
:1094A00014D1D2E90C32934213D0D21A02F6FF72D1
:1094B00022F47F621944184422F00F02FFF79AFF4A
:1094C000034620B9BDE8104001F0CABC032318468A
:1094D00010BD0023FBE700BF9C7D0020DBE5B15100
:1094E00070B5144EF36A756AB46CAC2B13D1736B00
:1094F0001C44ED1AF36AAC2B13D00F482A462146C0
:1095000003F036FDA8B100F0DBF829462046BDE89F
:10951000704001F0EBB9002CECD101F077FD04466E
:10952000E8E705482A46A4F5804103F021FD00281C
:10953000E3D170BD9C7D00200070070070B5274C02
:10954000E36AAA2B43D005D8012B0CD0A52B3AD027
:10955000002070BDAC2BFBD1FFF798FF002834D161
:10956000FFF7BEFF31E0A56C666A01F03BFD226BA0
:1095700003469D4205EB0201104414BFB21A0022BB
:10958000FFF738FF054660B901F02CFD2A46314649
:10959000FEF73EF9A36A984203D10123C4E9070309
:1095A000A66100250E4801F011FD0E4B0E48002269
:1095B0001A7001F055FC68B975B1236A012B14BF0C
:1095C00001200220C5E7FFF761FF0125EAE7FFF769
:1095D00087FFE6E70320BCE70120BAE79C7D002077
:1095E000C07D0020D8650020E993070010B5002455
:1095F000D4F8F83F013304D1084940F6F870FEF77B
:1096000065FED4F8FC3F013307D1BDE810404FF4AC
:10961000FC2140F6FC70FEF759BE10BD007007003B
:109620000A4AD2F800347BB109480023D2F8081561
:10963000D940C90748BF03F5C07103F1010348BF12
:1096400042F82100072BF1D1704700BF0000014014
:109650003546526EFFF7E4BF054B002282B0C3F8D7
:109660000021D3F800310193019B02B0704700BF85
:109670000000014038B50E4C2378BBB90D4BD3F830
:1096800000248AB1D3F80455FFF7CAFF40F61650FC
:10969000A842B8BF28460849A0F54860FFF792FEE7
:1096A000064B4FF480321A600123237038BD00BF8F
:1096B000D9650020000001405596070000E100E058
:1096C000034BD3F800340BB1FFF7AABF704700BFBC
:1096D000000001400023C0E90232C0E900118B887C
:1096E0001A440261B1F906301A4442610888003810
:1096F00018BF0120704710B542681188034641B178
:1097000002F110014160118A29B9C2680168FFF7AE
:10971000E1FF002010BD9078118900F03004302C5A
:109720001BD1947C04F03004302C1DD19088196931
:10973000091A19610021907810F0300F02BF986863
:1097400001309860908A0844196901441961B2F99E
:109750001620114459610120DCE700F0F004202CB0
:1097600002D150894143E6E700F0C000802808BFDD
:109770000421E0E770B5466804460D4663681A8820
:10978000AA4204D19B7803F00F03082B07D120468F
:10979000FFF7B1FF6368B342F0D1002070BD012034
:1097A000FCE743681A44426011B101399A4201D181
:1097B0000120704713F8010B01F8010FF6E710B50F
:1097C000836804460BB9002010BD03680122984746
:1097D0000028F8D0A368013BA360F5E72DE9F34129
:1097E0000F460DF107018046FFF7E9FF054620B956
:1097F0000025284602B0BDE8F0819DF907309DF8AC
:109800000740002B13DA04F07F0407260DF107014F
:109810004046FFF7D4FF0028EAD09DF8072002F069
:109820007F03B3401C43130606F1070601D43C60D6
:10983000DFE7232EEAD1DBE770B54268927802F0C9
:109840000F01082986B003461FD103691C68002652
:109850000CB906B070BD236826739D6862682946FE
:109860006846FFF737FF6368049304F10C03059320
:10987000AB7803F0C003802B08BF231D684608BFE8
:109880000493FFF7D9FFA468E2E73F2A28D802F043
:109890003001102911D14269002111705A681869EC
:1098A0009378D46803F00F03072B0CD101462046B0
:1098B00006B0BDE8704000F01FB89106EED54369D0
:1098C00000221A80C5E71289214624B106B0BDE8FE
:1098D000704003F071BA06B0BDE8704003F058BBA9
:1098E00002F0C0018029B4D1006900210160920614
:1098F00044BF5B691980ACE77FB50A4601466846FC
:10990000FFF7E8FE30B16846FFF796FF6846FFF7BD
:10991000F2FEF7E707B05DF804FB000030B504463F
:1099200085B01546A9B90268114B9A4211D0102D85
:1099300006D82A4669462046FFF7F0FF05B030BD3D
:10994000102269462046FFF7E9FF0028F6D0103DB7
:10995000EDE7A368AB4201D20020EFE723682A4677
:10996000204698470028F7D0A3685B1BA360E5E773
:10997000A39707002DE9F3410F4601A9804616463B
:10998000FFF72CFFA0B1019C621C4FF0000504D230
:10999000BB7803F0C003802B01D1284608E03B8947
:1099A0009342FAD3224631464046FFF7B7FF35557A
:1099B00002B0BDE8F08173B50D4601A90646144614
:1099C000FFF70CFFB0B1019AB2F5803F12D2AB782D
:1099D00003F0C003802B02F102010BD02B898B42D4
:1099E00008D32146304621F8022B02B0BDE8704072
:1099F000FFF794BF002002B070BD000010B5034C0B
:109A000082600022C0E90041C26010BDA397070038
:109A10002DE9F341002506460F46A8462C460DF1D8
:109A200007013046FFF7CBFEC0B19DF807C0A4F197
:109A300020030CF07F02C4F1200102FA03F322FAA2
:109A400001F10B43A2401CF0800F45EA020543EAF6
:109A5000080804F1070404D1C7E9005802B0BDE8C2
:109A6000F081462CDBD10020F8E737B50D4669467A
:109A70001446FFF7CDFF70B12B89082B0DD1DDE91E
:109A80000032C4E90032DDE90001914208BF98428A
:109A90000CBF0120002003B030BD042B03D1009B7C
:109AA00023600022EFE7022B03D1009B23809BB2AF
:109AB000F7E7012B04D1009B237003F0FF03F0E7CD
:109AC0000020E8E737B50D4669461446FFF7A0FFCA
:109AD00030B12B89082BDDE9001203D1C4E9001253
:109AE00003B030BD042B4FEAE17009D121600B4671
:109AF0000246824208BF8B420CBF01200020EFE7E4
:109B0000022B03D10BB22380DA17F2E7012B02D12B
:109B10004BB22370F8E70020E2E7F7B51F460023B9
:109B20003B700D460B70136001A904461646FFF703
:109B300055FE38B9A36813B1002003B0F0BD01236E
:109B40003B70F9E7019C002CF9D0E30804F007040E
:109B500033602C70F1E713B50446052921D8DFE8FE
:109B600001F0030F1720201E012201A92046FFF754
:109B7000D5FE18B19DF90430002BF5DB02B010BD05
:109B800008220021204602B0BDE81040FFF7C6BE03
:109B900001A9FFF723FE0028F0D0019AF1E7042283
:109BA000EFE70020EAE773B50D4601A90446FFF789
:109BB00015FE064618B90026304602B070BD94E87E
:109BC0000F0085E80F0001998A42F4D3A960A368C9
:109BD0005B1AA360F0E700002DE9F0435768BB78FB
:109BE00013F0C00489B006468C46154603D0402CBD
:109BF0006CD000240CE003F00F02614903F0300345
:109C0000202B51F8228028D006D8CBB1102B1ED0A3
:109C1000204609B0BDE8F083302BF9D16B69398853
:109C20001980072A0AD16B6828691A89214603F02E
:109C3000AFF96B682969D868FFF75EFE2A6942E0D0
:109C40002A693946434609B0BDE8F04318476B69B5
:109C500001221A702A696968F4E7BCF1020FD5F88D
:109C6000149024D1042A22D804A9FFF79CFF0446AB
:109C70000028BED0069B2BB16968B9F800304A892C
:109C80009A4205D8059B7360069B002BB1D1BFE7B4
:109C900008892A6903FB002204A8C04728B1B9F843
:109CA00000300133A9F80030E4E70446EAE7B9F8E8
:109CB00000307A899A429CD92A693989581CA9F8B6
:109CC000000003FB012269683046BBE7D2F8108030
:109CD000474657F8043B23B909B0BDE8F043FFF706
:109CE0003ABF022914D104A9FFF75DFF002880D0F4
:109CF000D8F8003069683A4604A898470446002816
:109D00003FF477AF069B002BF2D1059B73607FE792
:109D1000012926D005292CD000297FF46AAF0C46F2
:109D20000DF1040901340B2C3FF463AF01224946C5
:109D30003046FFF7F3FD00283FF45BAF19F9013B14
:109D4000002BEFDB0F4B049301ABCDE9053400236F
:109D50000793D8F8003069683A4604A89847044643
:109D600056E7082201A9FFF7D9FD08240028E9D108
:109D70003FE704220DEB0201FFF7D0FD0424F5E7D5
:109D800088D80700A39707002DE9F04790B0044654
:109D9000002604A8CDE90266FFF79CFCA3683BBB44
:109DA000DDE9053404A89D78FFF7A5FC0028F7D16C
:109DB00015F0300F03D1059B1B8803B10134002C33
:109DC00000F0B480630902A90022934240F0A7800A
:109DD00010AA02EB830304F01F0453F8383CC4F1CB
:109DE00020044FF0FF30E040C31A584258410DE0C4
:109DF0000DF1030301AA0DF102012046FFF78DFECC
:109E000038B99DF80330002BCAD1002010B0BDE84E
:109E1000F087019F04A83946FFF7ACFC002857D112
:109E2000B7424CD3059D059A937803F00F03082B96
:109E30007ED004A8FFF75FFC059B9D42F3D14FF055
:109E4000FF36B7429DF8029039D3089BD4F80880BA
:109E50001D68A36885B39845A0D12B68D3F800A0EE
:109E6000BAF1000F08D04B463A4629462046D04763
:109E70000028CAD0AD68ECE7D3F808A0BAF80030E3
:109E80009F42F7D16A6851460AA8FFF723FC6B6826
:109E90000E9305F10C030F939AF8023003F0C00300
:109EA000802B04BF2B1D0E9301232B730AAA494656
:109EB0002046FFF791FEDBE798457FF46FAF9DF8F2
:109EC00002102046FFF747FE00287FF467AF9CE7AB
:109ED000059B9B7813F0300F0FD1069A3F2A0CD8C0
:109EE000510910AB03EB810102F01F0201239340E3
:109EF00051F8382C134341F8383CD4F80C809DF8C5
:109F00000250B8F1000F04D004AB2A46394620466F
:109F1000C04704AA29462046FFF75EFED4E751F861
:109F2000040B01307FF471AF01324EE701206DE781
:109F3000168886E770B50C4606461546114620463B
:109F4000FFF7DAFC2A4621463046BDE87040FFF7AD
:109F50001BBFF0B585B0CF680C466946054616466E
:109F6000FFF721FE68B1E06858B1A37803F0300331
:109F7000202B32463946684605D1FFF7DBFF019BAF
:109F80006B6005B0F0BDFFF7FFFEF8E713B50C46B8
:109F90006946FFF73DFD60B1DDE900134A0842EA7A
:109FA000C372C9074FEA530344BFD243DB43C4E93A
:109FB000002302B010BD37B50D4669461446FFF7C1
:109FC000E5FF70B12B89082B0DD1DDE90032C4E922
:109FD0000032DDE90001914208BF98420CBF012028
:109FE000002003B030BD042B03D1009B2360DA179F
:109FF000EFE7022B03D1BDF900302380F7E7012BF7
:10A0000003D19DF900302370F1E70020E9E713B593
:10A0100004220C460DEB0201FFF780FC08B1019B06
:10A02000236002B010BD1146FFF7F1BF13B508223F
:10A030000C466946FFF772FC18B1DDE90023C4E95C
:10A04000002302B010BD1146FFF7F0BF10B5136832
:10A050001F2B144607D900220830FEF75AF808B91A
:10A060002023236010BD48F21450FBE70830FEF7B0
:10A070002DB80830FDF7FABF831F012B10B5044639
:10A0800002D8002000F08AFF034B1B681BB120465A
:10A09000BDE81040184710BDDC65002008B5074B2F
:10A0A00018600020FFF7E8FF054800F05FFF20B9C7
:10A0B000BDE80840024800F0D5BD08BDDC650020C1
:10A0C00079A007006CDF70476DDF704772DF704763
:10A0D00073DF704774DF704775DF704776DF704756
:10A0E0007ADF70477CDF70477DDF70477FDF704726
:10A0F00086DF70478FDF7047A8DF7047AADF7047A1
:10A10000ADDF7047AEDF7047B0DF7047B1DF70473B
:10A11000B5DF704762DF704766DF704713DF704757
:10A1200001460148FDF795BCA8DB070070B5182271
:10A130008CB000210DEB020002F02AFF28230893C7
:10A1400016231F4CADF806300023CDF80E30CDF8A5
:10A150001230ADF81630022309260622237023712F
:10A1600059230125A27063710322FE230DF106011C
:10A17000A0198DF818508DF82D500294ADF80C6090
:10A180006570E270A371FFF7AFFFB8B9BDF8063094
:10A1900026725A19E271BDF80C200A4C134402A928
:10A1A00006AA2046ADF80C30FFF790FF30B92078B2
:10A1B000FFF790FF20782946FFF78AFF0CB070BDAB
:10A1C000E06500209459002038B515490B68024617
:10A1D00013F0010022D0134882421ED0124A108888
:10A1E0004FF6FF72904213D043F004030B6013212B
:10A1F000FFF774FF90B90D4DC82445F001054FF4E9
:10A200007A40A847013CFAD1BDE8384001F0B0BC23
:10A21000074B1878FFF75EFFF6E7002038BD00BF58
:10A220006C76002094DB07009659002080DA070046
:10A2300094590020F0B50388212B8BB0044631D807
:10A240000F2B04D8012B00F0E4800BB0F0BD103BC5
:10A25000112BFAD801A252F823F000BFD5A20700B3
:10A26000F3A207004BA20700BBA30700F7A4070057
:10A270004BA207004BA207004BA207004BA207000E
:10A280004BA2070005A507004BA207004BA2070041
:10A290004BA207004BA207004BA207004BA20700EE
:10A2A000EFA30700503B9AB2062ACED8062BCCD893
:10A2B00001A252F823F000BF1FA307001FA407004C
:10A2C00005A507004BA207004BA2070077A30700D4
:10A2D000FFA307008F4D83882B808F4B1B680BB12A
:10A2E000012098478D4928880BB0BDE8F040FFF762
:10A2F000F3BE884B4FF6FF721A80894B1B685A07D2
:10A3000004D4FFF713FF08B1FEF797FB824B1B68DD
:10A31000002B9AD002200BB0BDE8F0401847814EC8
:10A32000E288B3889A4290D17F48FDF76CFB0546DE
:10A3300000288AD0228A04F1120102F03DFD182281
:10A34000002104A802F024FE08238DF81030774B7A
:10A350000693774B0596CDE9073504A8238AADF817
:10A36000243000F075FC00283FF46FAF6E4829469A
:10A37000FDF76FFB69E7E188F6291CD8CB1E9B0728
:10A380000DD0CB1F9BB2013B5A4202F0030203F0F7
:10A39000030301F1FF3158BF5342C91A89B25D4B23
:10A3A0001888FFF7B5FE00283FF44FAF0BB0BDE8AB
:10A3B000F040FEF742BBF721F1E7564C022304932D
:10A3C000208802AB04AA42F605210593FFF798FE08
:10A3D00008B1FEF732FB002320881A468521FFF7DB
:10A3E00085FE00283FF431AFFEF727FB2DE7002361
:10A3F00004A98088ADF81030FFF77CFEF1E7A3795F
:10A40000002B7FF422AF434B13211888FFF766FE21
:10A41000C9E7404B00211888FFF77EFEC3E7A37908
:10A42000002B3FF412AF022B7FF40FAF3D4D21897B
:10A43000AA8991427FF409AFA27B012A7FF405AF7C
:10A440004FF480320592228A324EADF81820628A8B
:10A45000ADF81A2004F11402079201AF298A30885E
:10A46000049302AA02930397FFF74AFE60B93846A5
:10A47000FEF752FD40B940F2FD133088ADF81430BC
:10A4800004A9FFF741FEE0E6002304A93088ADF8F7
:10A490001430FFF739FE014600287FF4D6AE1822AB
:10A4A00004A802F075FD237D204A8DF81030022BA0
:10A4B0000595069218D0062B10D0012B10D11D4BFC
:10A4C0001A881D4B1A80637DD4F816200893012B3F
:10A4D000099205D1194800F061FD01E0637D089300
:10A4E00004A800F0B5FBB0E6124AB4F815301380AA
:10A4F000114A1380F4E700231A4619468088FFF7B3
:10A50000F7FD50E70023A0881A461946FFF7FEFD25
:10A5100049E700BF965900205076002086DA0700F0
:10A520006C76002058760020A8DB070081A5070084
:10A5300021A10700567600205476002094DB070006
:10A540007FB50023CDF80B308DF80F300A4BADF8F6
:10A5500006109B89ADF8083001238DF80A300DF103
:10A560000603CDE90430054B02A91888FFF7CAFDA0
:10A5700007B05DF804FB00BF587600209659002014
:10A58000F0B5044687B000210D2202A8019102F027
:10A59000FFFC2378082B0BD1394A3A4913880988E4
:10A5A000013B9BB21380D9B1D3B90323118023702F
:10A5B000627823788DF805306021012A8DF8041027
:10A5C0008DF806200ED00B2A12D100F085F98DF8F7
:10A5D0000700002000F07AF9042101A8FFF7B0FF7E
:10A5E00007B0F0BD062B05D0082B29D0032B27D0B0
:10A5F0000321F2E7E1688DF80710D4E90123080A86
:10A600008DF80800080C090E8DF80A10110A8DF853
:10A610000B208DF80C10110C120E8DF80E201A0A5A
:10A620008DF80F308DF810201A0C1B0E8DF80D10C0
:10A630008DF809008DF811208DF812300F21CCE72C
:10A64000D4E90123C3F30741D7B2C2F30726C2F30B
:10A650000745DCB2C3F30720120E1B0E8DF80D1058
:10A660008DF807708DF808608DF809508DF80A2074
:10A670008DF80B408DF80C008DF80E300B21ACE7F7
:10A6800054760020567600202DE9F0413C4B94B0E2
:10A6900005464FF6FF721A8001204FF659632A468D
:10A6A00002A98DF80A00ADF80830FFF725FD044631
:10A6B000002861D1334B04AA03F11007164618682D
:10A6C0005968144603C40833BB422246F7D1A91C7B
:10A6D0003046FFF71FFD044600284DD101461C22DD
:10A6E0000DA802F055FC9DF834300C9443F004039F
:10A6F0008DF834300223ADF80C30AB788DF80E3085
:10A7000003238DF80630F423CDE90A44ADF82C304C
:10A710002B464FF4885833F8040BADF8048003AF90
:10A7200001AE08AA0DA908970996FFF7E7FC0446B1
:10A7300010BB01461C220DA802F02AFC18238DF83C
:10A7400034300123ADF80C30AB788DF80E30132384
:10A750008DF806301723CDE90A44ADF82C302B468E
:10A7600008AA33F80C0B0C940DA9CDE90876ADF8C6
:10A770000480FFF7C3FC0446204614B0BDE8F08116
:10A78000965900208EDA070030B5324C236813F05A
:10A79000010585B056D1304B18603048FDF71CF9E3
:10A7A000029500F0B4F800284DD12D48FFF7B6FC13
:10A7B000002848D101F09EF9002844D102A801F0F8
:10A7C00069FA00283FD102A9012001F06DFA0028A2
:10A7D00039D102A801F0CCFA002834D100F09EFB58
:10A7E00030B1204800F08EFB236843F00203236061
:10A7F000112302A88DF80430FFF766FC18BB9DF802
:10A80000093002A801338DF80930FFF75BFCD0B99D
:10A8100023689B0719D513498869043182B201A8BE
:10A82000FFF760FC78B91048FFF75AFC58B90F4899
:10A83000FFF72AFF38B9FFF779FC20B9236843F006
:10A8400001032360002005B030BD094802F06CFB15
:10A850000749E3E76C76002050760020A8DB07006C
:10A86000007007007076002086DA07005876002016
:10A8700075DA070043690BB1C068184770470000DC
:10A880000449054B0022904218BF19460348FDF7C2
:10A89000FAB800BF84D00700B0D00700F8590020F4
:10A8A00007B5009313460A4601460348FDF7EFF843
:10A8B00003B05DF804FB00BFF859002013460A46B8
:10A8C00001460148FDF7EAB8F8590020014B18701D
:10A8D0000B2070478C760020024B002218781A70EB
:10A8E000704700BF8C76002018DF704730B585B008
:10A8F000054610220C466846002102F049FBA408D8
:10A90000684601950294FFF7EFFF05B030BD1FB513
:10A910000023CDE901330393684602230093FFF738
:10A92000E3FF05B05DF804FB4FF000534FF4805295
:10A930001A60002070470000014B06201B68184772
:10A94000907600200A2803D90B38C0B2FFF7BEBFAB
:10A950007047000010B5044686B00020FDF7A6F849
:10A96000014638B1174A1821204606B0BDE810400C
:10A97000FCF782BE1822684602F00AFB0423124A42
:10A980008DF80030114B116D1B68994212D1104B9C
:10A99000186800F079FF8DF80100FFF7D3FFD4E9C4
:10A9A00001138DF80100684698470A4800F058FAEC
:10A9B00006B010BD01238DF801306846D4E90113BB
:10A9C0009847F5E755A907009C7D00209476002064
:10A9D0009876002039A90700F0B5044687B0162202
:10A9E00000210DF1020002F0D3FA23788DF8003037
:10A9F00001220C2B8DF8012000F21E819A4012F4E6
:10AA0000AD7F15D1022B06D00C2B40F015818B4B5E
:10AA100007201B689847D4E90113684698479DF8BA
:10AA20000130012B00F00681844B05201B6800E1FA
:10AA3000062B834A0AD0012B17D1237C1370012BDC
:10AA400044D0022B7FD000231370ADE0237C137021
:10AA5000012B6FD0022BF6D17A4B9A6C1B6D0193B0
:10AA60004FF4805302920393D5E71178012917D050
:10AA70000229E8D1013B072BCDD801A252F823F0DF
:10AA800047AB070017AA070005AC07000FAC07008B
:10AA900017AA070059AA070017AA0700ADAB0700BD
:10AAA000013B072BB7D801A252F823F0CDAA07002B
:10AAB00017AA07003BAB07000BAB070017AA07005C
:10AAC00035AB070017AA0700E5AA07005B4B032078
:10AAD0001B689847606900F0A5FCFFF733FF8DF80D
:10AAE000010098E7A18A206900F0B4FCFFF72AFF73
:10AAF000544B8DF80100DA6B1B6C0293E3680192F2
:10AB0000002B88D02069984785E74F494F4800F0CF
:10AB1000EFFCFFF717FF01288DF801007FF47BAFF2
:10AB2000002000F09DF900283FF475AF0A238DF84E
:10AB3000013070E74FF400730393424BDA6B1B6CE8
:10AB40000192029367E700F0A5FC08B90823EEE73D
:10AB500062690AB90323EAE7C2F30B0333B1394B45
:10AB600039495B6D096813448B42F3D1B2F5805FBC
:10AB700001D90423DBE7334B3349586D09681518B5
:10AB80008D42E3D85A64DA6C9A64186518632F4BC7
:10AB900061691B6801F6FF710022090B1844FFF779
:10ABA0008DFE00283FF437AF0523C0E700F072FCAC
:10ABB0000028CBD0234DA18AD5E914329B1A6A6CA8
:10ABC0000B449342C6D8214B2F6B1B68206905F1BB
:10ABD00048021F44FCF71CFEE368A28A216906466E
:10ABE0003846FFF75DFE08B1E3688BE7A28A2B6B5E
:10ABF000029613442B63A38A2A6DAE6413442B651B
:10AC0000019308E70F4B9A6C02921B6DF8E70D4B0E
:10AC1000D3E91402596C821A8A4297D19A6C58650A
:10AC2000002120465964DA64FFF794FE034B1B6849
:10AC30000420984707B0F0BD022378E79076002003
:10AC4000985900209C7D0020947600209876002062
:10AC500083681BB1024A1821FCF70EBD072070471C
:10AC6000D9A9070038B50546C0B10120FFF708FE95
:10AC7000044648B900F0C8FB00F00CFC30B9084BA2
:10AC800000201D60FFF722FE204638BD054906481A
:10AC900000F02EFC0128F2D00324F5E70724F3E7A7
:10ACA000907600209476002098760020F8B514461F
:10ACB0004FF4607205460F461E4602F059F918B966
:10ACC00004B1A047002006E0002201212846FFF73A
:10ACD000F5FD08B10320F8BD4FF4607239463046E7
:10ACE00002F06AF823464FF4607231462846FFF7B7
:10ACF000D7FD0028E6D0EDE7F8B5384C384F23688B
:10AD0000384E013305D13C68236801335CD00025FF
:10AD10000CE0201D00225821FCF77AFD25683C68D4
:10AD20002B1A5D425D412368013345D00022582132
:10AD3000201DFCF76DFD236883423DD16368012B24
:10AD400009D00022C32104F51870FCF761FDD4F886
:10AD50005C32834230D14FF460729DB31F49214869
:10AD600002F02AF8396820485422043102F024F80D
:10AD700039681E484FF432725C3102F01DF8746875
:10AD8000012C29D11A49402201F5E47002F014F88F
:10AD900018491C2201F5E47002F00EF8164986F8F5
:10ADA000A1420023042201F2862086F8603286F850
:10ADB000E23202F001F80DE035B108494FF460725B
:10ADC0000848DAE73968FBE706484FF4607200216B
:10ADD00002F0DEF802237360F8BD00BF00F0070048
:10ADE0009C5900209C7D0020A07D0020F87D002043
:10ADF000F87E0020387F0020B87D002070B50D4C13
:10AE00000546002258212046FCF702FD002244F8A6
:10AE1000040CC32104F51770FCF7FAFC261FC4F8D4
:10AE200058022A463146044B0448BDE87040FFF7FB
:10AE30003DBF00BFA07D00201C7A002000F007006D
:10AE400002460248024B0068FFF730BF9C590020C1
:10AE50009C7600200149FFF7F3BF00BF00F0070018
:10AE600038B505460020FFF7C9FF044618B9034965
:10AE70002846FFF7E5FF204638BD00BF9C7D002037
:10AE800010B5FFF7FDFC044608B1032010BDFFF725
:10AE900033FF2046FFF7E4FF0028F7D0F5E7000076
:10AEA00010B5084C4FF40072FF21204602F070F8F4
:10AEB00020220021A4F1240002F06AF8002344F8C3
:10AEC0002C3C10BDF87D002029DF704738B50C4DB3
:10AED0000446D5F8643378B101330FD1002218212C
:10AEE0000430FCF795FC2060214605F559700722D7
:10AEF000BDE83840FFF7E8BF0E2038BD0820FCE76A
:10AF000000F0070008B528B103491C2201F054FFE6
:10AF1000002008BD0E20FCE764F3070010B5064CC6
:10AF2000002218212046FCF773FC54F8043C1B1A3D
:10AF30005842584110BD00BF68F3070010B50A4CD5
:10AF4000D4F82433D4F864231340013309D04FF4E8
:10AF5000FE20FDF7A3F9C92221464FF4FE20FDF79C
:10AF6000CBF9002010BD00BF9C7D0020F8B5094F33
:10AF7000094CE41B0646E4080025A54201D1002047
:10AF8000F8BD57F83530304698470028F8D10135DC
:10AF9000F3E700BF94DB07009CDB0700F8B5094F1F
:10AFA000094CE41B0646E40800250437A54201D1FC
:10AFB0000020F8BD57F83530304698470028F8D1C2
:10AFC0000135F3E794DB07009CDB070008B50C2292
:10AFD000002101F0DDFF024B00221A6308BD00BF13
:10AFE0009C7D00204FF44053074A5968914201BFAD
:10AFF000986800F6FF7020F47F6020F00F0018BF03
:10B000004FF48050704700BFDBE5B15108B5FFF742
:10B01000E9FF054B9B69184400F6FF7020F47F6040
:10B0200020F00F0008BD00BF9C7D00204FF4805031
:10B03000704700002DE9F84305460F4690469946B3
:10B040000024012C2DD0022C01D11E4B30E0FFF743
:10B05000DDFFB8F1000F09D11B4B1B1AAB421FD308
:10B06000F7B9E4B234BB0020BDE8F883174B1E6A81
:10B07000731E5E425E41144B1B1AAB4201D3002F7C
:10B08000EFD0DEB90134032CDBD1AB4212D217E092
:10B090004FF440535E680E4BF61A18BF0126EAE7DC
:10B0A0000124FFF79FFFB9F1000FF1D0064B1B1AE7
:10B0B0009D4205D80748FFF789FFD4E7AB42D0D2BD
:10B0C0000420D1E700400700005007009C7D0020CD
:10B0D000DBE5B151B47D002090F8553013F0FB0F43
:10B0E00007D190F8643063B1836E53B10B600120D7
:10B0F000704703F00202DB0705D412B190F85C3010
:10B10000A3B90F20704790F85630002BF5D0836D0F
:10B11000002AEAD090F85C20002AE6D0054A006EAA
:10B12000C2F5FC22904203D80344DEE70023F5E792
:10B1300004207047007007002DE9FF472F49304D6C
:10B140008A6B304C304FDFF8D490DFF8D4A06E46D5
:10B150005C313046FEF752FC96E80F0085E80F00A0
:10B1600000212A4B39704FF447722046C9F800106D
:10B17000CAF80010EB6001F00BFF25492246284673
:10B18000FEF7D8FE20B90027384604B0BDE8F087A6
:10B190003F78002FF7D094F86C3194F800801BB3FF
:10B1A000B8F1000FEFD194F87231002BEBD0DAF840
:10B1B0000020D9F800103046FEF720FC96E80F007A
:10B1C00085E80F004FF4B272414604F5BA7001F001
:10B1D000DFFE104904F5BA722846FEF7ABFE0028E0
:10B1E000D1D004F5BA7406E0B8F1000FCBD0A37942
:10B1F000002BC8D00834084B1C60C5E79C7D00209C
:10B20000EC810020048200201C81002025B2070070
:10B21000C4D8070064D90700E8810020008200201C
:10B22000FC81002030B55B68DA680D4B9A420AD188
:10B23000D0E901340B48026812B90B490A681AB107
:10B240000A4B00221A7030BD1A4612F9015B002D1C
:10B25000FBDB23449B1A02600B600122034BF1E7E6
:10B2600064D9070000820020FC8100201C8100209E
:10B2700010B54FF44052124C516800F50053A142F2
:10B28000586803D0031B5842584110BD884214D15E
:10B290001178142982BF50690A4AB0FBF2F01A787B
:10B2A00098BF0020142A83BF5B69064AB3FBF2F300
:10B2B0000023C01A18BF0120E7E70020E5E700BF20
:10B2C000DBE5B15140420F0000B591B0FDF7FEF84B
:10B2D000684608492022FDF72CF96A4606490748C6
:10B2E0004023FDF74BF8064B01221A7011B05DF8B0
:10B2F00004FB00BFF8D10700A0810020DCD10700CB
:10B300001D810020F0B5A3B007460D4614461E4629
:10B3100078222023002104A8029301F039FE0023A3
:10B320000393194B1B780BB9FFF7CEFF2DB337BB37
:10B3300002AB164F01931649289B0097324604A88A
:10B34000FDF7AAF8E8B9402C1BD1124E2246294637
:10B35000304601F031FD20213046FDF7F6F8CDE909
:10B360000064029B0C493A4603A8FDF723F8002825
:10B3700014BF0520012023B0F0BD1320FBE71620E9
:10B38000F9E70A20F7E700BF1D8100203E81002079
:10B39000ACD807005E810020A0810020F0B5ABB0E2
:10B3A00004460D4616461F467822202300210CA88D
:10B3B000039301F0EDFD114B1B780BB9FFF784FFF0
:10B3C0002FB12146202204A8FDF7A8F804AC03AB56
:10B3D0000B4F01930B49009733462A460CA8FDF703
:10B3E0005BF848B920222146384601F0C1FDB0FA89
:10B3F00080F040092BB0F0BD0020FBE71D8100204C
:10B400001E810020ACD8070008B5044B986B08B12A
:10B41000FFF792FE024B187008BD00BF9C7D002014
:10B420002085002010B5044658B1B0F5007F0AD839
:10B43000064B00221A70FFF733FD054B01209C6379
:10B4400010BD0320FCE70420FAE700BF20850020A0
:10B450009C7D002070B50E4C0646E06BA36B421835
:10B460009A420D4611D85C300A462044314601F01C
:10B47000A3FCE36B04F140022B4429463046E3630E
:10B48000FCF7C6F92064012070BD0320FCE700BF73
:10B490009C7D0020014B1878704700BF208500205C
:10B4A00013B5104C94F86C21B2B194F8D802B4F8EA
:10B4B000DA2204F5377104F5B8740B4B1B6800935E
:10B4C0000A4B1B68FFF71EFF012809D1201D02B09F
:10B4D000BDE8104000F0DCB9114610460434ECE73A
:10B4E00002B010BD04820020FC81002000820020F8
:10B4F0002DE9F0411F4BD3E90E329A4206460D4624
:10B5000033D1DFF8788098F800704FB1FFF77EFDF7
:10B51000194B306029461868BDE8F041FFF7DCBDE3
:10B52000FFF70AFE18B3FFF7BBFF01283760044698
:10B530002F6017D1104B29461868FFF7CDFD012861
:10B5400004460FD103463A4628683946FFF772FD94
:10B5500038B9FFF75BFD88F8004030602046BDE851
:10B56000F0810424FFF79CFCF8E70824F6E70524A3
:10B57000F4E700BF9C7D0020E881002020850020AA
:10B5800001237230FFF70ABF13B50446084623783B
:10B590001146032B22D8DFE803F002050F18012023
:10B5A00002B010BD0022D4F80140FCF731F984420A
:10B5B00014BF00200120F3E70A4600230146601C67
:10B5C00002B0BDE81040FFF7E9BE009103464022FB
:10B5D000611C0020FFF796FE0128E9E70020DFE765
:10B5E0002DE9F043A3B005460E461446002178220B
:10B5F0001F4604A820239DF8AC800393DDF8A89093
:10B6000001F0C6FC41220021284601F0C1FCB6F839
:10B610009430A34282BF442303FB046393F89680D3
:10B6200085F80080B8F1030F1CD8DFE808F00902A4
:10B630000F1F002249463846FCF7EAF8C5F801001A
:10B640004A4639462846FFF79FFF0CE003AB0193BB
:10B650006B1C00930B494B463A4604A8FCF71CFFB1
:10B660000028EDD0002023B0BDE8F08344235C43E4
:10B6700033199A34B3F898203119681C01F09CFBF7
:10B68000DEE700BFACD807002DE9F047774B1D6817
:10B69000A4B00446884616460A4601462846FFF7E7
:10B6A0006FFF002800F0D88095F855704FBB4FF021
:10B6B0000109CDE9008923463A46294613A8FFF738
:10B6C0008FFF20B9002E40F0CC800525C6E076B370
:10B6D0004122674813A901F06FFB664BC3F82C9019
:10B6E0001F626A689A60002241462046FCF790F883
:10B6F000604BC3E909800125FFF7D2FB5D4B9C64D9
:10B7000018E04122002102A801F042FC07F00109E3
:10B710004122002113A807F0020701F039FCB9F11A
:10B72000000F0BD1002F66D1002E40F08280514BCC
:10B7300001255D61284624B0BDE8F08704F500527C
:10B740004D4B5068D5F858A09842BBD10AF5FF532D
:10B750000AF6FF71C1F30B011F335B1A916899421E
:10B76000B0D34FF440535968814205D1187811780D
:10B77000102831D8102937D82046FFF779FD002846
:10B7800036D10123CDE900A300222346294602A891
:10B79000FFF726FF002895D0AA6D7FB3A318A8EB6A
:10B7A00002020021CDE9002113A84A462946FFF7ED
:10B7B00017FF002886D0002EB9D0B9F1000F1FD195
:10B7C0002C4EAA23412213A906F2E220F36201F0D3
:10B7D000F3FA6B68F36086E710291B6906D91269D2
:10B7E0009A427FF46FAFC7E70023F8E70022F7E73C
:10B7F000002FC6D166E742462346D2E7002E96D0F8
:10B800002046FFF735FD10B11C48FFF7DFFB1C4851
:10B81000DFF86090412202A901F0CEFAAB6D67B962
:10B82000A522C9F82C20C9F83430002E3FF47FAF90
:10B8300059E7104BAA22DA6255E7AC22C9F82C204E
:10B8400013A9412209F2E220C9F8343001F0B4FA18
:10B850006B68C9F80C30E8E717251EB9FFF720FB25
:10B8600068E705250748FFF7B1FB45E7E8810020B9
:10B870003D8000209C7D0020DBE5B151B47D00209F
:10B88000FC7F0020C07D00200122FFF7FDBE0000EC
:10B89000F0B590F854300546002B34D090F85500A0
:10B8A000032830D895F86E30032B45D12B7A53B34B
:10B8B000EB68342B42D14FF44054224A61682B8A02
:10B8C000914222D143B16A69C2B1DBB205F11001E4
:10B8D0000022D6B2B34201D8122020E0A68951F846
:10B8E000047FB74202F10102F3D12B78D3B90128CA
:10B8F00015D0002814BF0F20012010E000B301284C
:10B90000EAD02B7883B90F2009E013B16B69002BC3
:10B91000E2D101282B7803D1002B08BF1220F0BD03
:10B92000002BE6D001280BD9074B6868DB689842EA
:10B930008CBF01201020F2E71420F0E71120EEE781
:10B940000120ECE7DBE5B1519C7D002038B1054BCF
:10B950000360054B436001230372002070470E20F3
:10B96000704700BF93B907006DB9070069B10B7844
:10B97000022B0CD1022804D003280CBF1120082070
:10B98000704703230B70002070470E20704708207B
:10B99000704710B50C4681B10B78012B06D00ED93B
:10B9A000033B012B8CBF1120082010BDFFF78EFA3E
:10B9B0000028FAD102232370F7E70E20F5E70820CC
:10B9C000F3E7000070B5134B134A0C21D21AB2FBF7
:10B9D000F1F2816911F8025C04462DB90069002179
:10B9E000914204D1012010E04FF0FF30F7E71E68CC
:10B9F000AE420CD1461C02D05E68864207D19D68DB
:10BA0000D4E90001D4E90223A847206070BD0131C8
:10BA10000C33E5E79CDB0700A8DB07001EF0040FF2
:10BA20000CBFEFF30880EFF30980FFF7CBBF00BF37
:10BA300010DF704711DF704713B5044609496846A7
:10BA4000FCF760FA019808B902B010BDD0E90031E6
:10BA50002046984718B16846FCF75DFAF2E71120D6
:10BA6000F2E700BFB8DA070013B504460749684695
:10BA7000FCF748FA019B0BB902B010BD2046D3E990
:10BA8000002190476846FCF746FAF3E7ACDA070076
:10BA9000084B9A6822B11A6822F480021A60704733
:10BAA000054B4FF48002C3F88020BFF34F8FBFF3E4
:10BAB0006F8F7047385A002000E100E00B4991F881
:10BAC0001623EC2352091341DB0706D5084B9A686D
:10BAD0003AB94FF480030B60704742F20200FCF762
:10BAE000ACBF1A6842F480021A60704700E100E0BF
:10BAF000385A0020F7B5194F3C786CBB184E012519
:10BB000020463570FFF798FF112821D02046FFF717
:10BB1000ABFF144B8DF80340186801900DF1030042
:10BB2000FBF73CFE104901A8FFF782FF0446B0FA7C
:10BB300080F0400938709DF80300FBF753FE44B9CC
:10BB40000A4B34701C70FFF7B9FF2846FFF78CFFD3
:10BB50000024204603B0F0BD0824FAE72385002026
:10BB600021850020C4DA0700358A070022850020DD
:10BB7000F7B5144E33781BB3134D01202870FFF72F
:10BB80005BFF112818D00220FFF76EFF00270DF190
:10BB900007008DF80770FBF701FEFFF74BFF044627
:10BBA0009DF807003770FBF71DFE34B903202C7099
:10BBB000FFF76EFFFFF758FF0024204603B0F0BDEB
:10BBC0000824FAE72385002021850020054B1B78F7
:10BBD00033B1054B1B780BB1FFF7CABFFFF78ABF24
:10BBE000082070472185002023850020014B18780C
:10BBF000704700BF2385002007B508496846FCF759
:10BC000081F9019B13B903B05DF804FBD3E900206F
:10BC100090476846FCF77FF9F3E700BFA0DA07001A
:10BC2000FFF7EABF60DF704769DF704761DF704789
:10BC300030B5134DADF5017D4FF4FA740DF10201ED
:10BC400003A8ADF80240FFF7F1FF70B9294601A83B
:10BC5000FCF758F9029B002BF0D003A8D3E9002190
:10BC6000904701A8FCF757F9F4E7052805D00DF532
:10BC7000017DBDE83040FCF7E0BE0DF5017D30BD33
:10BC8000C8DA0700024B1B780BB1FFF7D1BF704732
:10BC90002485002018B1034B0360002070470E205C
:10BCA000704700BF685900207FB506460C46002942
:10BCB0005AD02E4B0B600C22002101A801F068F92C
:10BCC000012506232268ADF8083001A920208DF84F
:10BCD00004608DF80650FFF7A7FF0C22002101A891
:10BCE00001F056F922688DF8055001A94020FFF7B0
:10BCF0009BFF0C22002101A801F04AF9F7232268DA
:10BD0000ADF8063001A923208DF80460FFF78CFF01
:10BD10000C22002101A801F03BF922688DF80450A3
:10BD200001A92846FFF780FF0C22002101A801F09D
:10BD30002FF94FF4B0632268019301A9A120FFF706
:10BD400073FF0C22002101A801F022F99DF80430B4
:10BD500022686FF3000301A9A0208DF80430FFF7DB
:10BD600063FF002004B070BD0E20FBE7685900207F
:10BD700008B5FFF757FF10B9014B01221A7008BD33
:10BD8000248500204BDF70471FB50E4C01A8FFF73C
:10BD9000F9FF70B9214602A8FCF7B4F8039B002B09
:10BDA000F4D00198D3E90021904702A8FCF7B3F83A
:10BDB000F4E7052804D004B0BDE81040FCF73DBE10
:10BDC00004B010BDD4DA07008B1802448B4200D1B6
:10BDD000704713F8010D02F8010DF7E700000000AD
:10BDE000C3F10803DB0070B501330446002003A54E
:10BDF0005B1920C940CAAD1920C4184720C940CAE0
:10BE0000754120C420C940CA754120C420C940CA18
:10BE1000754120C420C940CA754120C420C940CA08
:10BE2000754120C420C940CA754120C420C940CAF8
:10BE3000754120C4404170BD0000000000000000BA
:10BE4000C3F10803DB0070B50133002403A500BF74
:10BE50005B1920C940CAAD1B20C0184720C940CA81
:10BE6000B54120C020C940CAB54120C020C940CA40
:10BE7000B54120C020C940CAB54120C020C940CA30
:10BE8000B54120C020C940CAB54120C020C940CA20
:10BE9000B54120C06441B4FA84F0400970BD00BFD0
:10BEA0002DE9F04F08B4F8CA04B451F8042BA3FBF1
:10BEB000028940F8048B4FF0000AE4FB629A4FF0CD
:10BEC000000BE5FB62AB4FF0000CE6FB62BC4FF0F1
:10BED000000EE7FB62CE51F8042B4FF00008E3FBA5
:10BEE000628940F8048BE4FB629AE5FB62ABE6FBF7
:10BEF00062BCE7FB62CE51F8042B4FF00008E3FB75
:10BF0000628940F8048BE4FB629AE5FB62ABE6FBD6
:10BF100062BCE7FB62CE51F8042B4FF00008E3FB54
:10BF2000628940F8048BE4FB629AE5FB62ABE6FBB6
:10BF300062BCE7FB62CE51F8042B4FF00008E3FB34
:10BF4000628940F8048BE4FB629AE5FB62ABE6FB96
:10BF500062BCE7FB62CE40F8049B40F804AB40F8BB
:10BF600004BB40F804CB40F804EB0CBC052B00F0FC
:10BF70001E810C68A0F11400A1F11401A2F11402B9
:10BF800052F804EB4FF0000550F8046BE4FB6E56DA
:10BF900052F804EB50F8047BE4FB6E6752F804EBB4
:10BFA00050F8048BE4FB6E7852F804EB50F8049BD5
:10BFB000E4FB6E8952F804EB50F804ABE4FB6E9A94
:10BFC000A0F1140052F8044B51F804EB4FF0000CB0
:10BFD000E4FB6EC540F804CB51F804EBE4FB6E566D
:10BFE00040F8045B51F804EBE4FB6E6740F8046B27
:10BFF00051F804EBE4FB6E7840F8047B51F804EB55
:10C00000E4FB6E8940F8048B51F804EBE4FB6E9A74
:10C01000A0E80006062B00F0CA800C68A0F118000A
:10C02000A1F11801A2F1180252F804EB4FF000053B
:10C0300050F8046BE4FB6E5652F804EB50F8047BA6
:10C04000E4FB6E6752F804EB50F8048BE4FB6E7867
:10C0500052F804EB50F8049BE4FB6E8952F804EBB1
:10C0600050F804ABE4FB6E9A52F804EB50F804BBB2
:10C07000E4FB6EABA0F1180052F8044B51F804EB4E
:10C080004FF0000CE4FB6EC540F804CB51F804EB14
:10C09000E4FB6E5640F8045B51F804EBE4FB6E677A
:10C0A00040F8046B51F804EBE4FB6E7840F8047B35
:10C0B00051F804EBE4FB6E8940F8048B51F804EB73
:10C0C000E4FB6E9A40F8049B51F804EBE4FB6EAB82
:10C0D000A0E8000C072B6AD008B40C68A0F11C0083
:10C0E000A1F11C01A2F11C0252F804EB4FF0000573
:10C0F00050F8046BE4FB6E5652F804EB50F8047BE6
:10C10000E4FB6E6752F804EB50F8048BE4FB6E78A6
:10C1100052F804EB50F8049BE4FB6E8952F804EBF0
:10C1200050F804ABE4FB6E9A52F804EB50F804BBF1
:10C13000E4FB6EAB52F804EB50F804CBE4FB6EBCAE
:10C14000A0F11C0052F8044B51F804EB4FF000032F
:10C15000E4FB6E3540F8043B51F804EBE4FB6E560B
:10C1600040F8045B51F804EBE4FB6E6740F8046BA5
:10C1700051F804EBE4FB6E7840F8047B51F804EBD3
:10C18000E4FB6E8940F8048B51F804EBE4FB6E9AF3
:10C1900040F8049B51F804EBE4FB6EAB40F804ABB1
:10C1A00051F804EBE4FB6EBCA0E8001808BCBDE845
:10C1B000F08F002310B51C465AB2914200DC10BD2E
:10C1C00040F823400133F7E710B500231A465CB26C
:10C1D000A14203DCB2FA82F0400910BD50F82340BE
:10C1E00001332243F3E74A11012350F8220001F002
:10C1F0001F018B40184070474B1E10B55BB2041DE9
:10C200001A0603D45A1E54F8221071B101335BB2DE
:10C2100083B103F18042013A50F82210002231B973
:10C22000013B02EB431210B210BD1346E8E7490888
:10C230000132F4E71846F7E710B500235CB2A242DA
:10C2400000DC10BD51F8234040F823400133F5E7EE
:10C2500010B5013A52B2130601D5002010BD50F8B6
:10C26000224051F822309C4205D802F1FF32F2D22E
:10C270004FF0FF30F2E70120F0E700EB81010023EF
:10C28000884200D3704751F8042D43EA52030B60F3
:10C29000D307F5E770B59DF910601D463346044697
:10C2A000FFF79EFD30B9324621462846FFF7D0FF02
:10C2B000012807D033462A4621462046BDE8704073
:10C2C000FFF7BEBD70BD2DE9F04FB5B004AC9DF9D0
:10C2D000F85001901F4620462B46FFF7E1FD24ABA6
:10C2E00029463846CDE90234FFF786FFC0EB8514B6
:10C2F00024B2002C2146B8BF04F11F01634203F0B1
:10C300001F0341F3471104F01F0614A858BF5E42F3
:10C31000FFF74FFF002E4FEA81002DDD14AB002206
:10C320001844C6F1200E1346AB421AD314AB03EBEC
:10C33000850300936F1E34AB4FEA45084FEA850929
:10C34000012603EB8707002C53DA34AB03EB860698
:10C35000019856F8C81C2A46FFF76EFF35B0BDE8B5
:10C36000F08F57F823C00CFA06F10A4340F8042B6B
:10C3700001332CFA0EF2D7E714AB2A46394618449B
:10C38000FFF75AFFD2E75AF8C83C53F8202034ABE5
:10C3900003EB80030CF1010C53F8803C0B44D31ADF
:10C3A00034BF4FF0010B4FF0000B9A425EF8C82CDF
:10C3B00042F8203018BF59464FFA8CF04045E2DB76
:10C3C000731A5E42294614A85E41FFF756FF09F131
:10C3D000D0036B44009853F8802C57F8803C2946D2
:10C3E00043EAC273013C47F8803C24B2FFF745FFA3
:10C3F000A9E734AB4FF0000CC6F1010E614603EB28
:10C40000860A03EB8E0ED7E730B51C4691B0054681
:10C4100093F900306846FFF743FDD4F8AC30694625
:10C420002846984711B030BD13460A46FFF7ECBFC7
:10C43000F0B5082289B0FFF7FFFECB6A03930B6BC0
:10C4400004934B6B05938B6B0693CB6B07930C4656
:10C4500006460027134669466A466846CDE90177D5
:10C460000097FFF7BDFC082305466A463146304673
:10C47000FFF7B6FC236B0393636B0493A36B0593E5
:10C48000E36B0544CDE906376A46082369466846EA
:10C49000FFF7A6FC082305446A4631463046FFF7FD
:10C4A0009FFC236A0093636A0193A36A0293A36BC0
:10C4B0000693E36B0793054408236A4631463046EA
:10C4C000CDE904770397FFF78BFC636A0093A36AB7
:10C4D000A26B0193E36A02930492636BE26B039392
:10C4E000CDE90523236A0793054408236A463146AC
:10C4F0003046FFF775FCE36A0093236B0193636B8F
:10C500000293236A0693A36A0793054408236A46A5
:10C5100031463046CDE904770397FFF791FC236B52
:10C520000093636B0193A36B0293E36B0393636AC2
:10C530000693E36A07932D1A08236A46314630466C
:10C54000CDE90477FFF77CFC636B0093A36B019349
:10C55000E36B0293236A0393636A0493A36ACDE9AE
:10C560000537236B07932D1A08236A463146304658
:10C57000FFF766FCA36B0093E36BCDE90137636AB9
:10C580000393A36A0493E36ACDE90537636B0793CA
:10C590002D1A08236A4631463046FFF751FC2D1A02
:10C5A0000D4C0FD435B9082231462046FFF750FE16
:10C5B00001280FD00823224631463046FFF740FCC1
:10C5C0002D1AEFE70823224631463046FFF708FCD4
:10C5D0002D18F7D409B0F0BDE4DA0700F0B5154620
:10C5E00089B01C4607460E461A4629466846FFF79C
:10C5F0001BFF23466A4639463846FFF705FF2346A8
:10C600002A4669466846FFF7FFFE23466A463146DA
:10C610003046FFF7F9FE09B0F0BD2DE9F0471E46A0
:10C62000B3F9023013F11F0448BF03F13E04651152
:10C63000DC1D48BF03F10E04E41094424FFA85F963
:10C6400028BF144688464946FFF7B3FD22464146B7
:10C650000746FFF7B9FBB6F90220B2EBC40F4FEA69
:10C66000C4031FD29B1A07EB85040021C3F12005E8
:10C67000A7420ED324364A4639463046FFF7E8FD36
:10C6800001280FD04B4632463846BDE8F047FFF749
:10C69000D7BB54F8040D20FA03F20A43226000FAD3
:10C6A00005F1E5E7BDE8F08770B59DF910601D461E
:10C6B00033460446FFF7C4FB38B133462A462146C9
:10C6C0002046BDE87040FFF78BBB70BD2DE9F047F9
:10C6D00093F9006092B004468946104631461546EB
:10C6E0001F46FFF771FD002840F091803A46494609
:10C6F00002A8FFF799FE3B4602AA21460AA8FFF7C7
:10C7000083FE02A908463A46FFF78EFE3B462A46BC
:10C7100049464846FFF778FE07F104083A4629469D
:10C720002846FFF781FE43462A46214620460096CA
:10C73000FFF7B0FD43462A46294628460096FFF7F4
:10C74000A9FD43462A46214628460096FFF7ACFF3E
:10C750003B462A4621462046FFF756FE43462246E0
:10C76000214628460096FFF795FD434600962A4647
:10C7700021462046FFF78EFD2368DB074AD5334666
:10C78000424621462046FFF72BFB31468246204693
:10C79000FFF773FD06F18043013B54F8232042EA82
:10C7A000CA7244F823203A4621462846FFF73CFE49
:10C7B00043460AAA294628460096FFF775FF4346D6
:10C7C0000AAA294628460096FFF76EFF0AA90846DE
:10C7D00043462A460096FFF767FF3B460AAA2146D2
:10C7E0002046FFF711FE02AA434610462146009656
:10C7F000FFF75AFF324629462046FFF71DFD4946FE
:10C800002846FFF719FD02A94846FFF715FD12B0AB
:10C81000BDE8F08731462046FFF72FFDC3E72DE93D
:10C82000F04115468AB004460E461C22002103A89A
:10C8300000F0AEFB2F1D95F9008003232A463146F8
:10C8400020460293FFF7F0FD3B4602AA2146204610
:10C85000CDF80080FFF728FF2B46324621462046C0
:10C86000FFF7D2FDCDF800803B4605F1840221465A
:10C870002046FFF70FFD0AB0BDE8F0812DE9F04733
:10C880008AB01446DDF848A055461F4615F9046BDA
:10C890000096804689462B460246214602A8FFF7AD
:10C8A00003FF02A952460846FFF7BEFD534602AAFF
:10C8B00041464046FFF7A8FD534602AA21462046BE
:10C8C000FFF7A2FD2B464A46394638460096FFF749
:10C8D000EBFE5246394602A8FFF7A6FD02A92B46F9
:10C8E000424608460096FFF7DFFE02A92B46224685
:10C8F00008460096FFF7D8FE2B46424621462046C2
:10C900000096FFF7D1FE5346224649464846FFF7B8
:10C910007BFD2B4602AA414620460096FFF7C4FE47
:10C920005346224639463846FFF76EFD2B464A46A7
:10C93000394638460096FFF7B7FE324602A9204630
:10C94000FFF77AFC0AB0BDE8F08770B50368DB0733
:10C950000546144604D4BDE870401146FFF78DBC6F
:10C9600013460A460146FFF73BFA2146064628468B
:10C97000FFF783FC46B104F18044013C55F82430B4
:10C9800043F0004345F8243070BDF0B50F46A1B028
:10C9900006461946384615461C46FFF715FC28B1D1
:10C9A000304621B0BDE8F040FFF703BC22463946CF
:10C9B0006846FFF741FC294608A8FFF73DFC10A890
:10C9C0002146FFF7F6FB012318A81093FFF7F1FBB0
:10C9D000224608A96846FFF73BFC30B9224610A959
:10C9E0003046FFF729FC21B0F0BD009BDA0709D4DF
:10C9F00021466846FFF741FC2246294610A8FFF76A
:10CA0000A4FFE5E7089BDB0707D4214608A8FFF74A
:10CA100034FC2246294618A8F1E7002823461CDDED
:10CA200008AA69466846FFF70BFA21466846FFF7F1
:10CA300024FC224618A910A8FFF70AFC002805DAF2
:10CA400010A923462A460846FFF7CAF910A923462B
:10CA500018AA0846FFF7F4F9CEE76A4608A8FFF7D8
:10CA6000EFF9214608A8FFF708FC224610A918A8EC
:10CA7000FFF7EEFB002805DA18A923462A460846E8
:10CA8000FFF7AEF918A9234610AA0846FFF7D8F910
:10CA9000BFE7000000487047E0DA07002DE9F04FDB
:10CAA000EDB0CDE90310769E1946B6F9023096F93D
:10CAB000017096F9005013F11F0848BF03F13E08BA
:10CAC00048F3471808F1FF3B24AB002443F82B4000
:10CAD0006CAB03EB8B034CA892463A4643F8804C70
