:020000021000EC
:10900000000001200993010031930100B55A0200CC
:1090100035930100379301003993010000000000EF
:109020000000000000000000000000003B93010071
:109030003D930100000000003F93010041930100B7
:1090400049CC010043930100CDCA010085D4010041
:1090500043930100B5F0020025D001001D0C020071
:1090600043930100439301004393010043930100A4
:109070004393010043930100439301004393010094
:1090800035D801008DB501004393010043930100E1
:109090004393010043930100D5080200439301006C
:1090A0004393010043930100439301004393010064
:1090B0004393010043930100000000000000000002
:1090C0004393010043930100439301004393010044
:1090D000439301004393010043930100000000000B
:1090E0000000000000000000000000000000000080
:1090F0000000000000000000000000000000000070
:10910000000000000000000000000000000000005F
:10911000000000000000000000000000000000004F
:10912000000000000000000000000000000000003F
:10913000000000000000000000000000000000002F
:10914000000000000000000000000000000000001F
:10915000000000000000000000000000000000000F
:1091600000000000000000000000000000000000FF
:1091700000000000000000000000000000000000EF
:1091800000000000000000000000000000000000DF
:1091900000000000000000000000000000000000CF
:1091A00000000000000000000000000000000000BF
:1091B00000000000000000000000000000000000AF
:1091C000000000000000000000000000000000009F
:1091D000000000000000000000000000000000008F
:1091E000000000000000000000000000000000007F
:1091F000000000000000000000000000000000006F
:109200000348044B834202D0034B03B11847704715
:10921000F02D0020F02D0020000000000548064B36
:109220001B1AD90F01EBA301491002D0034B03B164
:1092300018477047F02D0020F02D0020000000009E
:1092400010B5064C237843B9FFF7DAFF044B13B18E
:109250000448AFF300800123237010BD202E0020AE
:1092600000000000882D060008B5054B1BB105491C
:109270000548AFF30080BDE80840FFF7CFBF00BF4F
:1092800000000000242E0020882D0600A3F5803A5F
:10929000704700BF174B002B08BF134B9D46FFF7CD
:1092A000F5FF00218B460F461348144A121A1FF08F
:1092B000F7FA0E4B002B00D098470D4B002B00D037
:1092C00098470020002104000D000D48002802D01E
:1092D0000C48AFF300801EF099F9200029000BF034
:1092E00069FE1EF081F900BF0000080000000000C8
:1092F0000000000000000120202E002004B4002007
:1093000000000000000000000649074A074B9B1AB6
:1093100003DD043BC858D050FBDC03F05FF8FFF7D7
:10932000B9FF0000CC2E0600D02B0020202E0020FC
:10933000FEE7FEE7FEE7FEE7FEE7FEE7FEE7FEE705
:10934000FEE7FEE7704700BF00B583B0044B009313
:10935000044A402300F03AF803B05DF804FB00BF74
:10936000699301003C2E002022B32DE9F843134BF2
:10937000134E88461446032743F001090025224670
:1093800008EB0501002005F069FD034601224FF4BA
:109390007A40E41A1D4443B933784BB1C847013FC2
:1093A0004FF0010307D03370E9E73270002CE6D1AB
:1093B000BDE8F88370473770BDE8F883009203007A
:1093C0007C2E0020704700BF05F01EBEF0B595B0A2
:1093D000084600240E4617461D4602F089FE1A9ADA
:1093E0000D922346082205A93046CDE90954089775
:1093F0008DF82C400C9402F0DFFEDDE906219DF88B
:1094000014308DF81140CDE9021203F00302012A55
:1094100028D0022A04D0304602F06EFE15B0F0BD0E
:10942000BDF81650C3F3C203C5F389158DF810308B
:109430000827082D2C4628BF08243B4622460EA9A3
:10944000304602F0B9FE2D1B08AB02AA21460EA839
:10945000274401F035F9002DEBD1304602F04CFEE7
:1094600015B0F0BDBDF814100598C1F38312C3F315
:10947000C203C0F39525C1F383148DF810300EA9F3
:1094800030469200082302F097FE08AB0093224674
:1094900002AB0EA9284601F09DF8304602F02CFEE2
:1094A00015B0F0BD08B5FFF78FFF0448042101F0A7
:1094B0000FF8034B01225A7108BD00BFB42E0600FD
:1094C000D02B0020064B074810B500221A7002F07E
:1094D000C1FD044610B9044802F0A2FE204610BDAA
:1094E000802E0020002E06003C92030030B499B17B
:1094F0000D490E4D491BC90813D00D4C002302E045
:10950000013399420AD034F823208242F8D1184618
:1095100055F8300030BC7047044DF9E7002030BCEE
:1095200070470846F6E700BFB42E0600142E06006A
:10953000182E0020094B013903EBC00303290BD877
:10954000DFE801F00402080604207047022070479B
:10955000587970471879704700207047142E06001C
:10956000704700BF30B5154B1B7883B00446FBB97C
:1095700000B31EF0CDFE411C0091114801236A4644
:1095800001A902F05BFE0546A0B9009A01982146A8
:109590001EF00EFDDDE900231344094803F8015CC9
:1095A000009902F089FE0099054802F09FFE01989B
:1095B00003B030BD002003B030BD00BF802E0020BE
:1095C0003C9203002DE9F0438B4CD4E901239A42ED
:1095D00085B05DD00023C4F81834BFF34F8FA56861
:1095E000EAB2D31C04EB830014F82330590718D5D2
:1095F0006668037803F00303012B42D0022B03D1EA
:109600004388023505EB9315EAB2D4F81814D31C3D
:1096100004EB830029B9AE4239D914F823305B0733
:10962000E7D404EB82026B1CDBB2D26804EB830349
:1096300002F00301DB680229CDE9012305F10206EE
:109640002AD0012900F08A80D4F810543DB12B684B
:1096500028469B689847EB681D68002DF7D167483E
:10966000674B6849C01AC008000440F0020000F0CF
:1096700059FED4E90130C01A18BF012005B0BDE879
:10968000F08303880235C3F383131D44BCE7A6604F
:10969000002005B0BDE8F083BDF806305A48C3F39A
:1096A00089184546502D28BF502565F38F1305F1C5
:1096B0000801ADF8063002F0CFFC07460028C3D001
:1096C00002F016FD0023082201A9384602F040FDF1
:1096D000F343DBB20133B5EB830F4FEA83097FD944
:1096E000F1B2A5EB0905033104EB81014A46384686
:1096F0000823EDB202F02CFD444909F108032A4683
:10970000384602F025FD08F1030806EB9806D4F868
:109710001834D4F81054002B5ED165B1EB685A7937
:1097200028463946002A65D02B681B689847EB68A5
:109730001D68002DF2D1384602F0DEFC00230DF149
:1097400003008DF8033001F081FDD4F8183403B91B
:10975000A6609DF8030001F09FFD8AE7BDF8042094
:109760002948C2F38313062B28BF062363F389120B
:10977000023303F00F018900ADF8042002F06CFC05
:10978000074600283FF460AF02F0B2FC0023082235
:1097900001A9384602F0DCFCBDF8043013F4707FF8
:1097A000B5D06FF001094FF00808A9EB0509F1B237
:1097B00003314346042204EB8101384602F0C8FC21
:1097C000BDF804300136C3F3831309EB060293425C
:1097D00008F10408EBD89AE7384602F08DFC48E718
:1097E000F1B203312A4604EB81010823384602F026
:1097F000AFFC88E71D6890E7802E0020442E06000D
:10980000142E060024920300002E06008C2E002049
:109810002DE9F04F89B0DFF8F4B1009000230DF18D
:10982000130002F1030A8DF813309146039101F001
:109830000DFDDBF80830DBF804704FEA9A0A03F5F7
:1098400080730AF10206DB1B9E4240F2D880CDE90C
:1098500001790BF21C450BF583680BF2144418E0F8
:10986000BDF81630C3F3891303333F0C09EB93099A
:10987000204601F0A5FF394608B1CBF808902846EC
:1098800001F06EFFDBE9012303F580739B1A9E4212
:1098900055D90121284601F063FF404601F084FFBD
:1098A000204601F081FFDBF80830DAB2D11C0BEB67
:1098B000810C1BF8211001F00400490720D40BEBA8
:1098C000820103F10209C86805900133DBB20BEB9A
:1098D000830300F003000128DF6829D00228BFD0ED
:1098E0000027C5E7BCF8023007EB9313DAB2D11CAE
:1098F0000BEB810C1BF8210000F004000028DED0E7
:109900009CF8001001F0030101290AD0022903F19B
:10991000020702F10301E5D00BEB810C0028EFD127
:10992000CDE7BCF800200233C2F383121344DDE715
:10993000BDF81430C3F383133F0C994498E7DDE975
:109940000179D3B20333164406226AF39F524BF8CF
:1099500023209DF81300CBF8046001F09DFCBB1C94
:10996000DBB2C3F58071B9EB810F4FEA810403F1DB
:10997000030335D803990BEB83004A461EF018FB0E
:109980000021204801F0CAFE80F31000009C7B1CDF
:10999000DBB20BEB8303FAB2210C033241EA004144
:1099A000D960E3005BF8221003F0380343F00203B0
:1099B00043EA895301F47C110B434BF822309BF8A6
:1099C000003023B9FFF7CCFD09B0BDE8F08FFFF7F9
:1099D000F9FD0028F6D0FFF7F5FD0028F7D1F1E7F3
:1099E000039D224629460BEB83001EF0E1FA29462F
:1099F0002144A9EB040204481EF0DAFAC0E73A4613
:109A00009FE700BF9C3200208C2E0020802E00207B
:109A10002DE9F04F89B0DFF8E8B101930646002345
:109A20000DF113008DF813308946924601F00EFCBB
:109A3000DBF80830DBF8047003F58073DB1B072BC1
:109A400000F2D980CDE902760BF21C450BF5836854
:109A50000BF214441AE0BDF81620C2F38912033247
:109A6000360C07EB9207204601F0AAFE08B1CBF8AE
:109A700008703146284601F073FEDBF80830DBF849
:109A8000042003F580739B1A072B55D80121284623
:109A900001F066FE404601F087FE204601F084FE9C
:109AA000DBF80870F9B2CA1C0BEB820C1BF8222001
:109AB000530702F0040020D40BEB8101CA68059221
:109AC000791CC9B202F003020BEB8101012ACE68B6
:109AD00007F1020729D0022ABDD00026C3E7BCF84F
:109AE000027002EB9717F9B2CB1C0BEB830C1BF83F
:109AF000230000F004000028DED09CF8003003F0C2
:109B00000303012B0AD0022B07F1020201F1030328
:109B1000E5D00BEB830C0028EFD1CDE7BCF800308B
:109B20000237C3F383131F44DDE7BDF81420C2F3EB
:109B30008312360C174496E7DDE90276D3B203337D
:109B400040F285114BF8231008329DF81300CBF832
:109B5000042001F0A1FBBB1CDBB20BEB8303019AD9
:109B6000C3F80CA0FB1CDBB20BEB83030021DA6013
:109B70003B1DDBB20BEB8303129ADA607B1DDBB279
:109B80000BEB8303139ADA60BB1DDBB20BEB830391
:109B9000149ADA60FB1DDBB20BEB8303159A1748AE
:109BA000DA6001F0BBFD80F31001F30003F038032D
:109BB00043F4C07343F00103781C43EA8922C0B226
:109BC000FBB2033309040BEB800041EA1641C1608C
:109BD0004BF823209BF8003023B9FFF7C1FC09B0F4
:109BE000BDE8F08FFFF7EEFC0028F6D0FFF7EAFCA7
:109BF0000028F7D1F1E73A46A0E700BF9C320020E9
:109C0000802E00202DE9F04F89B0DFF8CCB1019310
:109C1000064600230DF113008DF813308946924655
:109C200001F014FBDBF80830DBF8047003F58073F7
:109C3000DB1B052B00F2CB80CDE902760BF21C4535
:109C40000BF583680BF2144418E0BDF81620C2F33C
:109C500089120332360C07EB9207204601F0B0FD63
:109C600008B1CBF808703146284601F079FDDBE9F0
:109C7000012303F580739B1A052B55D80121284633
:109C800001F06EFD404601F08FFD204601F08CFD95
:109C9000DBF80870F9B2CA1C0BEB820C1BF822200F
:109CA000530702F0040020D40BEB8101CA6805922F
:109CB000791CC9B202F003020BEB8101012ACE68C4
:109CC00007F1020729D0022ABFD00026C5E7BCF859
:109CD000027002EB9717F9B2CB1C0BEB830C1BF84D
:109CE000230000F004000028DED09CF8003003F0D0
:109CF0000303012B0AD0022B07F1020201F1030337
:109D0000E5D00BEB830C0028EFD1CDE7BCF8003099
:109D10000237C3F383131F44DDE7BDF81420C2F3F9
:109D20008312360C174498E7DDE90276D3B2033389
:109D300040F205114BF8231006329DF81300CBF8C2
:109D4000042001F0A9FABB1CDBB20BEB8303019AE0
:109D5000C3F80CA0FB1CDBB20BEB83030021DA6021
:109D60003B1DDBB20BEB8303129ADA607B1DDBB287
:109D70000BEB8303139A1748DA6001F0CFFC80F3F2
:109D80001001F30003F03803781C43F48073C0B271
:109D9000FAB2090443F001030BEB8000033243EAFB
:109DA000892341EA1641C1604BF822309BF800300C
:109DB00023B9FFF7D5FB09B0BDE8F08FFFF702FC30
:109DC0000028F6D0FFF7FEFB0028F7D1F1E73A466E
:109DD000ACE700BF9C320020802E00202DE9F04F20
:109DE00089B0DFF8B8B10193064600230DF11300E6
:109DF0008DF813308946924601F028FADBF80830D6
:109E0000DBF8047003F58073DB1B042B00F2C180C8
:109E1000CDE902760BF21C450BF583680BF2144476
:109E200018E0BDF81630C3F389130333360C07EB83
:109E30009307204601F0C4FC314608B1CBF8087006
:109E4000284601F08DFCDBE9012303F580739B1AA2
:109E5000042B54D80121284601F082FC404601F031
:109E6000A3FC204601F0A0FCDBF80830DAB2D11CDC
:109E70000BEB810C1BF8211001F0040049071FD4E3
:109E80000BEB82019F1CC86805900133DBB20BEB22
:109E9000830300F003000128DE6829D00228C0D027
:109EA0000026C6E7BCF8023006EB9313DAB2D11CE9
:109EB0000BEB810C1BF8210000F004000028DFD020
:109EC0009CF8001001F0030101290AD0022903F1D6
:109ED000020602F10301E5D00BEB810C0028EFD163
:109EE000CEE7BCF800200233C2F383121344DDE74F
:109EF000BDF81430C3F38313360C1F4499E7DDE932
:109F00000276D3B20333C5214BF8231005329DF8F6
:109F10001300CBF8042001F0BFF9BB1CDBB20BEB44
:109F20008303019AC3F80CA0FB1CDBB20BEB830389
:109F30000021DA603B1DDBB20BEB8303129A16485B
:109F4000DA6001F0EBFB80F31001F200781C02F004
:109F50003802C0B2FBB20333090442F0C1020BEB7A
:109F6000800041EA164142EA8922C1604BF8232071
:109F70009BF8003023B9FFF7F3FA09B0BDE8F08F82
:109F8000FFF720FB0028F6D0FFF71CFB0028F7D1D5
:109F9000F1E73A46B5E700BF9C320020802E002052
:109FA0002DE9F04FDFF8BCB189B0002406460DF171
:109FB00013000193894692468DF8134001F046F94B
:109FC000DBF80830DBF8047003F58073DB1B032B30
:109FD00000F2C480CDE902760BF21C450BF58368D4
:109FE0000BF2144419E0BDF81620C2F389120332B3
:109FF000360C07EB9207204601F0E2FB31460028C1
:10A0000039D02846CBF8087001F0AAFBDBE9012320
:10A0100003F580739B1A032B5CD80121284601F0BD
:10A020009FFB404601F0C0FB204601F0BDFBDBF882
:10A030000870FAB2D11C0BEB810C1BF821104B07F6
:10A0400001F0040027D40BEB82017A1CC96805914A
:10A05000D2B20BEB820201F003000128D66807F1AF
:10A06000020730D00228BED0204601F0A9FB00260E
:10A0700031460028C5D12846C6E7BCF8027001EB7E
:10A080009717FAB2D31C0BEB830C1BF8230000F0DC
:10A0900004000028D7D09CF8003003F00303012B04
:10A0A0000AD0022B07F1020102F10303E5D00BEB0A
:10A0B000830C0028EFD1C6E7BCF800300237C3F3A9
:10A0C00083131F44DDE7BDF81420C2F38312360C5E
:10A0D000174490E7DDE90276D3B2033385214BF8CC
:10A0E000231004329DF81300CBF8042001F0D4F8BB
:10A0F000BB1CDBB20BEB8303019AC3F80CA0FB1C67
:10A10000DBB20BEB830300211548DA6001F006FB9C
:10A1100080F31001F300781C03F03803C0B2FAB2E8
:10A12000090443F081030BEB8000033243EA8923E7
:10A1300041EA1641C1604BF822309BF8003023B948
:10A14000FFF70EFA09B0BDE8F08FFFF73BFA0028E1
:10A15000F6D0FFF737FA0028F7D1F1E73A46BBE728
:10A160009C320020802E00202DE9F04FDFF8B0B1A6
:10A1700087B0002306460DF10B008DF80B30CDE9BA
:10A18000001201F063F8DBE9018303F58073A3EBB0
:10A190000803022B00F281800BF21C450BF583674C
:10A1A0000BF214441AE0BDF80E20C2F389120332F8
:10A1B0004FEA114A09EB9209204601F001FB514692
:10A1C00000283AD02846CBF8089001F0C9FADBE91C
:10A1D000012303F580739B1A022B5FD801212846C7
:10A1E00001F0BEFA384601F0DFFA204601F0DCFA51
:10A1F000DBF80830DAB2D11C0BEB810C1BF8211014
:10A2000001F00400490728D40BEB82015A1CC968ED
:10A210000391D2B201F003000BEB82020128D16856
:10A2200003F1020931D00228BDD0204601F0C8FA5E
:10A230004FF0000A51460028C4D12846C5E7BCF8B3
:10A2400002300EEB9313DAB2D11C0BEB810C1BF82E
:10A25000211001F004000028D6D09CF8001001F075
:10A26000030101290AD0022903F1020E02F10301C0
:10A27000E5D00BEB810C0028EFD1C5E7BCF800203E
:10A280000233C2F383121344DDE7BDF80C20C2F39E
:10A2900083124FEA114A91448EE74246D3B2033308
:10A2A00045214BF8231003329DF80B00CBF8042016
:10A2B00000F0F2FF08F10203DBB20BEB8303019A1B
:10A2C0001648DA60002101F029FA80F31001F3004A
:10A2D000009A03F0380343F0410308F1010043EA18
:10A2E0008223C0B25FFA88F209040BEB80000332CC
:10A2F00041EA1641C1604BF822309BF8003023B987
:10A30000FFF72EF907B0BDE8F08FFFF75BF90028E3
:10A31000F6D0FFF757F90028F7D1F1E79C3200207B
:10A32000802E00202DE9F04FDFF8A0A187B0002398
:10A3300006460DF10B008DF80B30019100F086FF01
:10A34000DAE9018303F58073A3EB0803012B00F224
:10A3500081800AF21C450AF583670AF214441AE068
:10A36000BDF80E30C3F3891303334FEA11490BEBE9
:10A37000930B204601F024FA494600283AD028469B
:10A38000CAF808B001F0ECF9DAE9012303F58073AB
:10A390009B1A012B5FD80121284601F0E1F93846CC
:10A3A00001F002FA204601F0FFF9DAF80830DAB2DB
:10A3B000D11C0AEB810C1AF8211001F004004907A6
:10A3C00028D40AEB82015A1CC9680391D2B201F069
:10A3D00003000AEB82020128D16803F1020B31D09D
:10A3E0000228BDD0204601F0EBF94FF000094946A4
:10A3F0000028C4D12846C5E7BCF802300EEB931301
:10A40000DAB2D11C0AEB810C1AF8211001F0040019
:10A410000028D6D09CF8001001F0030101290AD0D1
:10A42000022903F1020E02F10301E5D00AEB810CCF
:10A430000028EFD1C5E7BCF800200233C2F3831235
:10A440001344DDE7BDF80C30C3F383134FEA114921
:10A450009B448EE74246D3B2033305214AF82310CA
:10A4600002329DF80B00CAF8042000F015FF00210D
:10A47000154801F053F980F31001F300019A03F03D
:10A48000380343F0010308F1010043EA8223C0B21C
:10A490005FFA88F209040AEB8000033241EA1641B0
:10A4A000C1604AF822309AF8003023B9FFF758F813
:10A4B00007B0BDE8F08FFFF785F80028F6D0FFF76A
:10A4C00081F80028F7D1F1E79C320020802E00208F
:10A4D00030B4154DD5F81014044679B100200B4660
:10A4E00001E01B685BB1DB681A798242F9D1013067
:10A4F0000A28F4D14FF0FF3030BC70470846E368BB
:10A500001871D5F810344BB1DA68E36812681A6034
:10A51000D5F81034DB681C6030BC7047C5F81044B7
:10A52000E268136030BC7047802E002038B5084BBD
:10A53000D3F8104401251D704CB1E3685D712368A8
:10A5400020465B689847E3681C68002CF5D138BD4D
:10A55000802E002070B5C38882B004460D461BBB18
:10A56000237A052B1ED0627A7AB9134AA08852F852
:10A5700023600021FEF7BAFF104903463246284601
:10A5800002B0BDE8704001F0A1B91946A088FEF7FD
:10A59000D1FF0B4B0B4953F82020284601F096F9C8
:10A5A000237AE2E702B070BD07490091074A0849E3
:10A5B000284601F08BF9D3E714930300749203004B
:10A5C000F092030070920300689203004892030027
:10A5D000509203002DE9F04385B01D460C9C0023EA
:10A5E00094F80C90237380460E4617462146284661
:10A5F000FFF7B0FF062F09D8DFE807F0042E343B41
:10A60000444F1F004146204601F060F92B7A052B8C
:10A6100005D06B7A5BB92749204601F057F92046EF
:10A6200001F048F984F80C9005B0BDE8F083224AA7
:10A630002249204601F04AF9EDE773690393336933
:10A640000293F3680193B3680093D6E9002341466F
:10A65000204601F03BF9D9E732684146204601F037
:10A6600035F9D3E7D6E900234146204601F02EF91B
:10A67000CCE7B3680093D6E900234146204601F0B9
:10A6800025F9C3E7F3680193B3680093D6E9002383
:10A690004146204601F01AF9B8E733690293F3689E
:10A6A0000193B3680093D6E900234146204601F0A8
:10A6B0000DF9ABE7809203006892030070920300EB
:10A6C000082900D970472DE9F04F1D4683B00024BA
:10A6D0001B7B2C730E460746294610469046019375
:10A6E000DFF8D0B0DFF8D0A0FFF734FF05E03A5D27
:10A6F000013401F0EBF8082C09D0A6425146284657
:10A70000F5D85946013401F0E1F8082CF5D1244977
:10A71000DFF8A8B0234CDFF8A8A0284601F0D6F84F
:10A720004FF0000917E017F80910481C7E294FF078
:10A730002E02C0B206D81AF8002012F0970F14BFEC
:10A740000A462E222146284609F1010901F0BEF8E9
:10A75000B9F1080F0AD04E45E5D85946284609F107
:10A76000010901F0B3F8B9F1080FF4D198F80830F5
:10A77000052B02D098F809305BB90B49284601F047
:10A78000A5F8284601F096F8019B2B7303B0BDE8AD
:10A79000F08F064A0649284601F098F8EDE700BF19
:10A7A0009092030094920300809203006892030049
:10A7B000709203008C920300849203007C92030049
:10A7C000852C060038B5174B1D783DB3164A116825
:10A7D000C0B200230C4604E00133AB4204F108048C
:10A7E0001CD011F833209042F6D102F011FC6378AE
:10A7F000A3F10103B3FA83F35B09834200D038BDB0
:10A800000A4AD2E900321343F9D1094B09481968C1
:10A810000022BDE83840490800F07EBC00231B78C8
:10A82000FFDE00BF2434002028340020183400202C
:10A8300020340020D82B00202DE9F047DFF860926B
:10A84000DFF860A299F8003082B0002B4FD0DFF81B
:10A850005882904F0024D8F8005015F8340002F0C8
:10A86000D7FB15F8346005EBC40572086B78B95C4A
:10A87000A3F10103B3FA83F3F5074FEA531340F151
:10A88000A2800D09042D00F29B80DFE805F003385B
:10A8900047544E00834240F093800F201023014024
:10A8A0000B43BB540DF1070000238DF8073000F077
:10A8B000CDFC0122A6F12003C6F1200122FA01F10C
:10A8C00002FA03F30B43DAF800109DF80700B240D8
:10A8D0001143DAF80420CAF800101A43CAF8042019
:10A8E00000F0DAFC99F8002001349442B3DBDAE995
:10A8F0000032134340F0C38002B0BDE8F087181A5D
:10A90000B0FA80F0400943010F2008400343BB54D4
:10A9100099F80020013494429DDBE8E783424FF030
:10A920000F0040F0AA8030236AE0834240F0A38009
:10A930000F20302396E0834242D00F20402391E045
:10A94000834200F09580F02399F800500B40BB54EF
:10A95000A5B1D8F800000023024603E0AB4202F1A3
:10A9600008020BD010F83310B14203F10103F5D106
:10A9700022B1536813B100213046984700230DF1EE
:10A9800007008DF8073000F061FC0122A6F12003DA
:10A99000C6F1200122FA01F102FA03F30B43DAF8BF
:10A9A00000109DF80700B24021EA0201DAF8042005
:10A9B000CAF8001022EA0302CAF8042000F06CFC76
:10A9C00099F80020A6E701F00F05042DF8D80FF242
:10A9D000080C5CF825F000BF59AA01004BAA010041
:10A9E000F7A90100EDA9010041A901008342E7D0C8
:10A9F000F020042336E083424FF0F00031D10323EE
:10AA000001400B43BB5499F80020002A3FF46FAF7C
:10AA1000D8F800500023294604E0934201F10801D0
:10AA20003FF478AF15F83300B04203F10103F4D1DD
:10AA300000293FF46FAF4B68002B3FF46BAF3046FB
:10AA40000121984799F8002064E7181AB0FA80F0BD
:10AA500040094300F02058E78342B1D1F0200123A0
:10AA60001DE7012301400B43BB5499F8002051E737
:10AA7000F0200323F6E70F2366E71023F2E7064BE7
:10AA8000064819680022490802B0BDE8F04700F006
:10AA900043BB00BF0834002020340020D82B002006
:10AAA000243400201834002028340020092A3FD9FB
:10AAB000F0B583B0144605460E4602F04DF988B352
:10AAC000204B214A1E70214B1560002120481C603C
:10AAD00010221DF0E5FE1F4B00200021741EC3E96B
:10AAE0000001E4B236B31C4F05EBC404032602E0B8
:10AAF000A5421FD01C469DF8063094F802C020786D
:10AB00008DF8046023F007033A4601A98DF806305A
:10AB10008DF805C002F02AF9A4F108030028E7D057
:10AB200003B0F0BD02F0C8F80028C9D003B0F0BDF2
:10AB300007207047094A0A48002103B0BDE8F040E9
:10AB400000F0D2BA24340020283400202034002021
:10AB50000834002018340020C5A7010039A80100DE
:10AB60002893030070B5084D2B785BB1074E002485
:10AB70003368012113F8340002F0E8F92B7801342E
:10AB8000A342F5D8002070BD2434002028340020D2
:10AB900000B585B00346002101AA44F20100CDE9C9
:10ABA000011103930AF05CFF05B05DF804FB00BFE0
:10ABB000844612F0030014D14B1C10B4DB000A4C85
:10ABC0009BB213442260094A1360094A094B107072
:10ABD0001870094A094BA2F800C019805DF8044BAF
:10ABE00070470720704700BF3834002034340020FD
:10ABF00030340020313400202E3400202C3400204A
:10AC00002DE9F0432C4E33888B4283B003D20920C8
:10AC100003B0BDE8F083002507460DF107000C46A0
:10AC200090468DF8075000F011FB244B24491A7808
:10AC3000244B0888197881425FFA81FC38BF0CF1F7
:10AC4000010CD2B238BF5FFA8CF5AA422BD01D7826
:10AC50001978DFF87890CAB2884286BF0132D2B242
:10AC600000229DF807001A70EDB200F015FBD9F82C
:10AC7000003043F8358003EBC5034FEAC50807B140
:10AC80001CB900229A800020C2E70F4B30881B6855
:10AC9000394605FB003022461DF08AF9D9F800300C
:10ACA00043449C80EFE79DF8070000F0F5FA04208C
:10ACB00003B0BDE8F08300BF2E3400203134002003
:10ACC0002C3400203034002034340020383400206C
:10ACD0002DE9F84F1A4C1B4D22782B789A4224D03C
:10ACE000DFF868A0DFF86890174FDFF868B04FF022
:10ACF00000082378DAF800103888D9F8006051F895
:10AD0000332001EBC30C03FB0060BCF80410904738
:10AD10002278BBF80010D3B201339142DBB206D9DE
:10AD2000237023782A789A42E3D1BDE8F88F84F81B
:10AD3000008022782B789A42DBD1BDE8F88F00BFE3
:10AD400031340020303400202E34002038340020EC
:10AD5000343400202C34002030B48D688468C268FC
:10AD6000CB68A54293412CBF0120002030BC704726
:10AD700030B5344B1D7883B01DB90025284603B08B
:10AD800030BD04460028F8D02F4800F0E9FB2F4BD7
:10AD90001A685B6880182E4AD2E9001243F100035A
:10ADA000884273EB020203D210F1807043F100037A
:10ADB000D4E90212884293410AD2B2F1FF3F08BFA0
:10ADC000B1F1FF3FD9D02348214601F0B9FAD5E7C8
:10ADD00000230DF107008DF8073000F037FA2369E2
:10ADE0002BB94FF0FF324FF0FF33C4E902239DF837
:10ADF000070000F051FAD4E90530984700230DF11F
:10AE000007008DF8073000F021FA2369ABB1D4E9CF
:10AE10000212B2F1FF3F08BFB1F1FF3F0DD05B1846
:10AE200042F100029DF80700C4E9023200F034FA52
:10AE30000848214601F084FAA0E79DF8070000F0D9
:10AE40002BFA9AE7B8340020F82B0020B034002009
:10AE5000A8340020389303002DE9F04F83B08146D9
:10AE600000F052FB40B17C4AD2E9003113F180730B
:10AE700041F10001C2E900310021484600F060FBC9
:10AE8000764D30B12B6823B12868FFF771FF00239E
:10AE90002B600121484600F053FB002840F0C4809D
:10AEA0006F4801A900F0D6FB00283AD06C4C4FF057
:10AEB000FF3A4FF0FF3B09E033B301A9204600F011
:10AEC000FBFB01A9204600F0C5FB50B30378012B22
:10AED00011D0022BF0D1634E304601F045FA30B16B
:10AEE000C0E902AB304601F03FFA0028F8D15E4BD2
:10AEF00001221A70E1E72B684168994200F09180C5
:10AF0000584801F03BFAD8E74168D1E90223B3F190
:10AF1000FF3F08BFB2F1FF3FCFD0524801F010FA17
:10AF2000CBE7504E514FDFF83081304601F022FA26
:10AF3000002853D0D0E90223B3F1FF3F08BFB2F19C
:10AF4000FF3F6AD0296891B12968D1E902018242A4
:10AF50008B4159D22B68D3E90223B3F1FF3F08BFDD
:10AF6000B2F1FF3F03D02968304601F0E9F93046DD
:10AF700001F0FAF904463846D4E902AB00F0F0FAE1
:10AF80003B4BD8F80410D3E900E2D8F80030C318DE
:10AF900041F10001734571EB020C03D213F1807390
:10AFA00041F10001BAEB03036BEB010B012B7BF1C9
:10AFB000000B1BDBB3F5350F29D252464FF4960335
:10AFC0000021384600F016FAC0B10D2812D0002337
:10AFD00030462B6001F0CEF90028ABD12B689BB92D
:10AFE000484603B0BDE8F04F00F0D6B9002138461E
:10AFF00000F09AFA2046FFF7BBFEE8E72B6813B98A
:10B00000484600F0C5F92C6003B0BDE8F08F384623
:10B0100000F0A6FA174A0244D0E7304601F0A4F93E
:10B0200083E700232B6048E7104800F099FA0A4BA9
:10B030001A685B6880180E4AD2E9004143F10003A8
:10B04000A04273EB010103D210F1807043F10003C1
:10B05000C2E9000324E700BFB0340020BC34002064
:10B060004034002038930300B8340020F82B00202F
:10B07000A8340020FFFFB40010B5134B13491C681F
:10B08000134882B008235822019400F089FA04463C
:10B0900010B1204602B010BD0E4A0F4801A900F0C1
:10B0A00013F904460028F4D10B48012100F022FADC
:10B0B00001231946094A084800F072F9084B012299
:10B0C00020461A7002B010BD509303005034002087
:10B0D0004034002059AE0100F82B0020FFFF7F0014
:10B0E000B8340020000000006AB19FED097BA1F197
:10B0F00001010368B1FA81F1490983ED027BC3E9DB
:10B100000412002070470720704700BFAFF3008093
:10B11000FFFFFFFFFFFFFFFFF0B583B004460026EF
:10B1200001A817460D468DF8046000F08FF8D4E9A9
:10B130000223B3F1FF3F08BFB2F1FF3F06D09DF8F5
:10B14000040000F0A9F8304603B0F0BD1C4800F040
:10B1500007FA1C4B1C4A19685B684018D2E90012B8
:10B1600043F10003884273EB020220D3281843F115
:10B170000003A060E3609DF8040000F08DF82369EF
:10B18000A76103B12561114801A900F021FA034626
:10B1900050B100220D481A705C6001A900F04AFA13
:10B1A00050B9002003B0F0BD042003B0F0BD10F191
:10B1B000807043F10003D9E7014800F0D5F9F0E7CA
:10B1C000F82B0020B0340020A834002040340020A8
:10B1D00030B583B00446002501A88DF8045000F076
:10B1E00035F8D4E90223B3F1FF3F08BFB2F1FF3FC6
:10B1F0001DD04FF0FF334FF0FF32C4E902239DF81A
:10B20000040000F049F80F4801A900F0E1F90346F5
:10B2100050B101220B481A705C6001A900F00AFAD3
:10B2200060B9002003B030BD042003B030BD9DF8EC
:10B23000040000F031F8284603B030BD024800F0A9
:10B2400093F9EEE740340020F82B002070B4EFF3C0
:10B25000108472B60D4A9368ABB9012191600C4914
:10B260000C4ED1F8805035401560C1F88060D1F89F
:10B27000845055604FF0FF32C1F88420037004B948
:10B2800062B670BC70470123F8E700BFC0340020ED
:10B2900000E100E0FC06FFBD094B9A687AB170B985
:10B2A00010B4EFF3108172B6064A1C6814605C6833
:10B2B0005460986001B962B65DF8044B70477047FE
:10B2C000C034002000E100E010B5294C437944F877
:10B2D0002320284C04EBC3031B79002B3BD10368CC
:10B2E0000A88C3F8082590F904308A78002B2ADBF5
:10B2F00003F16043520103F56143D2B283F80023A6
:10B3000090F90430002B09DB1B494FEA531C012242
:10B3100003F01F0302FA03F341F82C304279174B74
:10B3200044F832001648181A04EBC201C0084FF066
:10B33000010C000481F804C040F003001149FEF73D
:10B34000F1FF002010BD104903F00F035201194412
:10B35000D2B20A76D4E70A4B08480C49C01AC00892
:10B36000000440F00200FEF7DDFF082010BD00BF22
:10B37000D4340020CC34002000E100E0542E06003C
:10B38000142E060078930300FCEC00E054930300B5
:10B39000036801221A607047036801225A607047EF
:10B3A00070B405684FF480348C40C5F808430568D4
:10B3B00001F1500CC5F848434FEA8C0C05681FFAA0
:10B3C0008CFC002645F80C6083B055F80C500195B4
:10B3D000019D056801F5A87122F07F4245F8212002
:10B3E0000268C2F8444313B10368C3F8044303B0CE
:10B3F00070BC70472DE9F0474FF4803799460368D9
:10B400008F40C3F848730368C3F80873036801F1F9
:10B4100050060D4603EB810122F07F48D3F8043536
:10B42000D1F84025C1F84035B600B6B2D21A03684B
:10B430004FF0000A43F806A082B09B59009322F017
:10B440007F42012A009B044645D02368D3F8046557
:10B45000C3F84473A8EB060323F07F43012B05F5E3
:10B46000A87527D0226842F825802168D1F8040504
:10B47000A8EB0002C9F1FF13013A03F57F4322F064
:10B480007F42934212D342B1C1F844732368002033
:10B49000C3F8047302B0BDE8F08708F1010341F876
:10B4A00025302168D1F804359842EDD00D2002B046
:10B4B000BDE8F087236808F1010243F825200C4B12
:10B4C0004FF4806043F0010398472168D1F80435B8
:10B4D0009E42D9D0EAE7064B4FF4806043F0010367
:10B4E0009847236843F806A09B590193019BACE75A
:10B4F0009093030002680223C2F8443311B102683A
:10B50000C2F80433704700BF0368D3F8040100B9E0
:10B510007047002282B0C3F80421D3F804310193AC
:10B52000019B012002B0704702684FF4803303FA98
:10B5300001F1C2F848130368C3F80813704700BF4D
:10B5400050318900036889B2585800B97047002209
:10B550005A5082B05B580193019B012002B07047A2
:10B560000368D3F80405704790F90430002B09DB19
:10B570005A09054803F01F030121403201FA03F381
:10B5800040F82230704700BF00E100E0024A034B60
:10B5900010681B68184700BFCC340020D43400204A
:10B5A00099B110B4B2FBF3F403FB1424A4B244B970
:10B5B0000160446084608281C38120465DF8044B51
:10B5C000704709205DF8044B70470E20704700BF9C
:10B5D00010B483B050E8013F1FFA83FCC489A4442F
:10B5E0008489A44528BFACEB040C0489A44502BFA0
:10B5F000BFF32F8F002207E0CCEA030C40E801C420
:10B60000002CE7D14FF001028DF803200193019C3B
:10B610009DF803200C6032B1006810FA84F003B08A
:10B620005DF8044B704702F0FF03184603B05DF865
:10B63000044B70470A884B889A4201D0002070471B
:10B6400050E8012FC2EA024240E80123002BF7D163
:10B650000120704710B483B050E8023F1FFAA3FCEA
:10B66000C488A44502BFBFF32F8F00220EE0C48917
:10B67000A4448489A44528BFACEB040CC3EA0C4C59
:10B6800040E802C4002CE7D14FF001028DF80320FE
:10B690000193019C9DF803200C6032B1006800EB1F
:10B6A000144003B05DF8044B704702F0FF031846E6
:10B6B00003B05DF8044B70470A884B889A4201D06A
:10B6C0000020704750E8022FC2EA224240E80223DD
:10B6D000002BF7D1012070474B0901F01F024FF0FA
:10B6E000010C0CFA02F100EB830000F021B800BF5E
:10B6F00001F01F02012303FA02F24B0900EB830061
:10B70000D14300F021B800BF4B0901F01F0150F8F0
:10B710002300C84000F00100704700BF034653E813
:10B72000000F0A4643E8002C9CF0000FF7D1704749
:10B73000034653E8002F42EA010043E8000C9CF066
:10B74000000FF6D1704700BF034653E8002F02EA0E
:10B75000010043E8000C9CF0000FF6D1704700BFD9
:10B76000034653E8002F02EB010043E8000C9CF075
:10B77000000FF6D1704700BF034653E8002FA2EB3D
:10B78000010043E8000C9CF0000FF6D1704700BFA9
:10B790000346012253E8000F40EA020143E8001C7F
:10B7A0009CF0000FF6D170470346012253E8001FBA
:10B7B00041EA020043E8000C9CF0000FF6D170470C
:10B7C0000346002253E8000F00EA020143E8001C90
:10B7D0009CF0000FF6D170470346002253E8001F8B
:10B7E00001EA020043E8000C9CF0000FF6D170471C
:10B7F000D0B110B4D0E90112521A0468D2B2531E6B
:10B800002160DBB252B101680A6803F1FF3C541CAD
:10B810000C6013705FFA8CF3FF2BF4D103680020E7
:10B8200018715DF8044B70470E20704730B583B037
:10B83000044600250DF107008DF80750FFF706FDBF
:10B84000D4E900311A688A4210D9511E1960216862
:10B85000A368086812F801CC0A79E5681B1ADBB204
:10B86000208A9A4238BF0B7100FB0C559DF80700E7
:10B87000FFF712FD284603B030BD00BF30B50546C6
:10B8800083B00DF1070000230C468DF80730FFF759
:10B89000DDFC2A681368591C1160E9682A8A641A59
:10B8A000B4FBF2F41C709DF80700FFF7F5FC03B041
:10B8B00030BD00BF826842B110B5044643690168DB
:10B8C000006998470023A36010BD70470EB400B50F
:10B8D00082B0039921B104AB01AA019300F0B2F840
:10B8E00002B05DF804EB03B0704700BF2DE9F04FE4
:10B8F000164683B0B142DDF830900D9A0F460546EA
:10B900009A46C0F09A800B464FF00108B3FBF6F35D
:10B910009E4208F10108F9D9D04538BFD04612F04F
:10B920000103019302D1B9F1000F65D1AA68BAF100
:10B93000010F4FF0010406D90AF1FF3ABAF1010FE5
:10B9400006FB04F4F8D8B7FBF4F39E4205D806FBD7
:10B9500004F4B7FBF4F39E42F9D9DFF8E4A007E062
:10B96000B442B4FBF6F31AD3AA681C46B7FBF3F350
:10B970001AF803B0BBF10A0F04FB13772DD02B6824
:10B98000511CA96003F802B0D5E901329A42E7D30D
:10B990002846FFF78FFFB4FBF6F3B442E4D2019BD5
:10B9A000C3B1B9F1000F15D0C14513D9202401E06E
:10B9B000C1450FD0AB682A68591CA960D454D5E999
:10B9C00001329A4209F1FF39F2D32846FFF772FF9C
:10B9D000C145EFD103B0BDE8F08F511C2B68A960C1
:10B9E0004FF00D019954D5E901329A42C7D3284648
:10B9F000FFF760FFAA68C2E7930718D42024C14567
:10BA000094D9AA682968531CAB608C54D5E90112FB
:10BA10008A4209F1FF3905D2B9F1000F87D0C1453B
:10BA2000F0D184E72846FFF745FFAA68F4E7BAF1AA
:10BA3000000F14BF20243024E1E74FF001086BE72A
:10BA400098930300002900F070822DE9F04F0C4616
:10BA500085B014F8015B0646002D7BD091464FF06F
:10BA60000D0A10E00A2D00F09080B3683268591C6E
:10BA7000B160D554D6E901329A4280F082802578AF
:10BA8000002D67D00134252DECD10027224614F873
:10BA9000013B2D2B6FD0302B70D02B2B64D02A2B59
:10BAA00000F08280A3F1300109294FF000050BD886
:10BAB00005EB850503EB450512F8013FA3F13001C5
:10BAC0000929A5F13005F3D92E2B144677D04FF074
:10BAD000000803F0FB02682A43D0252B00F08E817A
:10BAE000583BDAB2202A31D8202B2FD8DFE813F0C8
:10BAF00021002E002E002E002E002E002E002E00E3
:10BB00002E002E002E0004017D002E002E002E009F
:10BB10002E007D002E002E002E002E002E002E0066
:10BB2000B5002E002E0021012E001C012E002E003B
:10BB30002100D9F8001043461022081DC9F8000062
:10BB400009683046CDE90057FFF7D0FE013425786B
:10BB5000002D97D1337B002B40F04A8105B0BDE822
:10BB6000F08F14F8013FB4E7224614F8013B2D2B67
:10BB700047F004078FD147F0010787E747F0020736
:10BB800084E73046FFF796FE79E7B3683268591CC0
:10BB9000B16002F803A0D6E901239342FFF466AF37
:10BBA0003046FFF787FE60E7D9F80030191DC9F865
:10BBB00000101D6853782E2B02F1010487D16378A1
:10BBC000A3F13002092A04F101044FF0000880D8E3
:10BBD00008EB880803EB480814F8013FA3F1300292
:10BBE000092AA8F13008F3D973E7D9F800301A1DF3
:10BBF000C9F80020D3F800B08BEAEB73A3EBEB732A
:10BC0000092B40F30D82B74801211A46632AA0FB95
:10BC100003C301F101014FEAD303F6DC414538BF0C
:10BC20004146002D40F020810025BBF1000FC0F2FD
:10BC3000908107F00403002B40F0E18107F003033B
:10BC4000022B00F0D481CDE90057434659460A2221
:10BC50003046FFF74BFE013479E7D9F800301A1D62
:10BC6000C9F80020D3F80080B3683268581C30212E
:10BC7000B060D154D6E90123934280F02581591C4C
:10BC80003268B1607821D154D6E901329A4280F00D
:10BC90001681B8F10F0F474603D943461B090F2BF6
:10BCA000FCD80125082301E0013B2D01012BFBD12C
:10BCB000B8FBF5F10F29F8D8DFF82CB206E00F2D0C
:10BCC0004FEA15137FF642AFB2681D46B7FBF5F396
:10BCD0001BF80380B8F10A0F05FB137778D033689F
:10BCE000501CB06003F80280D6E901329A42E6D3D4
:10BCF0003046FFF7DFFDE2E7D9F800301A1DC9F83A
:10BD000000201D78B3680A2D00F030813268591C7C
:10BD1000B160D554D6E901329A42FFF417AF3046EC
:10BD2000FFF7C8FD013412E7D9F8001043460A2294
:10BD300003E7D9F800301A1DC9F8002017F00107F1
:10BD4000D3F8008065D1B8F1000F03D040461CF055
:10BD5000DFFA0746BD4215D94FF0200B01E0BD4286
:10BD600010D0B2683368511CB16003F802B0D6E954
:10BD70000123934205F1FF35F1D33046FFF79AFDD9
:10BD8000BD42EED198F80050002D3FF4DFAEB3680D
:10BD90000D270A2D0FD03268591CB160D554D6E951
:10BDA0000123934280F0C28018F8015F002D3FF418
:10BDB000CDAE0A2DEFD13268591CB160D754D6E907
:10BDC00001239342E7D33046FFF774FDB368E2E7FF
:10BDD0003368501C4FF00D01B0609954D6E9013220
:10BDE0009A42FFF47CAF3046FFF764FDB26876E715
:10BDF000304605B0BDE8F04FFFF75CBDB268316872
:10BE0000501CB0608B54D6E901329A4287D201347B
:10BE10009DE698F80020002A00F013810A2AB368F2
:10BE2000C3464FF00D0710D03168581CB060CA549B
:10BE3000D6E9012393420BF101016AD29BF801205C
:10BE4000002A46D08B460A2AEED13168581CB060D1
:10BE5000CF54D6E901138B42E6D330460392FFF765
:10BE600029FDB368039ADFE7BBF1000F68DB17F029
:10BE7000040300F08A80BA0705F1FF3503D5B8F155
:10BE8000000F3FF4D8AEFA073FF5D5AE002D3FF4D2
:10BE9000D2AEA942BFF4CFAE2023B268501CB0602E
:10BEA00030688354D6E90102824205F1FF3580F003
:10BEB0009380002D3FF4B8AEA942EED1B5E63046EE
:10BEC000FFF7F8FCB268E4E63046FFF7F3FCB3682E
:10BED000D5E6C8F1010293445D457FF637AE4FF0D9
:10BEE000200806E0CDCCCCCC98930300AB453FF4C2
:10BEF0002DAEB36831685A1CB26001F80380D6E9F0
:10BF00000131994205F1FF35F0D33046FFF7D2FCFD
:10BF1000ECE73046FFF7CEFC9BF801200BF1010166
:10BF2000002AD6D0B3688B468DE770473046FFF7BE
:10BF3000C1FC18F8015F002D3FF408AEB36828E794
:10BF4000B80705F1FF354ED4FB0702D40DB1A94265
:10BF5000A2D3B2683368501CB0602D209854D6E943
:10BF600001329A425ED2CBF1000B67E6591C32686F
:10BF7000B1600D21D154D6E901239342FFF4C6AE3E
:10BF80003046FFF797FCB368C0E6BA0750D4FB070A
:10BF90005CD507F00303022B7FF455AEB8F1000F18
:10BFA0007FF451AEA942BFF44EAE3023B268501CAC
:10BFB000B06030688354D6E90102824205F1FF3552
:10BFC00003D2D5B1A942F1D13DE630460391FFF746
:10BFD00071FC03993023F4E730460391FFF76AFCC4
:10BFE0000399202365E7B8F1000FADD1B1E7B8F1AF
:10BFF000000F7FF428AE002DD4D1002523E6B268CF
:10C000003368501CB0602B209854D6E901329A4214
:10C01000FFF414AE30460391FFF74CFC03990DE694
:10C020000121FBE530460391FFF744FC03999AE7B1
:10C03000B8F1000F07D107F00303022B7FF403AE22
:10C04000B0E7934648E7F8073FF5F8AD8D423FF675
:10C0500023AFF3E5FFF7CCBB2DE9F041078ACE1CF7
:10C06000043F3E440546B6FBF7F6FFF7DFFB00282A
:10C0700034D0F6B24FF48073013E04468380C7800B
:10C0800005602CD003464FF0000807E06279464572
:10C0900002F1010262713860056020D028461F4617
:10C0A000FFF7C4FB08F1010803460028EED16779C9
:10C0B000791E17D02246013399421268FBD1D2F87B
:10C0C00000805FB12668002501E0344636682146CD
:10C0D00040460135FFF7D2FBAF42F6D80024204698
:10C0E000BDE8F08120682146FFF7C8FBF6E700BFF6
:10C0F00001210430FFF734BB2DE9F0410121044652
:10C100000430FFF739FB10F0FF0301D0BDE8F081E8
:10C110006779791E16D02246013399421268FBD105
:10C12000D2F80080002FF1D02668002501E03446C7
:10C130003668214640460135FFF7A0FBAF42F6D8EE
:10C14000BDE8F08120682146BDE8F041FFF796BBCD
:10C150002DE9F8438846C788417907FB01F1043986
:10C1600002EB030C1E1D6145154638BFCD1AB742C0
:10C170000446B6FBF7F207FB126002D8013A2468C6
:10C18000FCD13E1AAE4228BF2E469DB14FF00009A9
:10C190000430AD1B324608EB090120441BF008FFB8
:10C1A000AF42B14424683E464FF0000028BF2E46FF
:10C1B000002DEDD1BDE8F8832DE9F8430446C7888A
:10C1C000407907FB00F0043802EB030C1E1D6045AC
:10C1D000154638BFC51AB7428846B6FBF7F207FBCB
:10C1E000126102D8013A2468FCD17E1AAE4228BFFF
:10C1F0002E469DB14FF0000904312144AD1B32465B
:10C2000008EB09001BF0D4FEAF42B14424683E465F
:10C210004FF0000128BF2E46002DEDD1BDE8F88378
:10C220008268002393608268136182685361826828
:10C23000D36082685360826813607047F8B5054622
:10C240000F468068164613BBD0E903146A68081BC2
:10C2500002F1010C84452BD004EA020301EA02003A
:10C26000984238BFA418336836BF0134ACEB0004E1
:10C27000641A9C4228BF1C4634602B6803443B6010
:10C28000AA683168D3680B44D3600020F8BDFFF77B
:10C290007FFA78B9D5E90123D3E9031402F1010C3F
:10C2A0000B1B6345D8D13060A868FFF795FAECE71F
:10C2B0003360EAE71120F8BD38B5D0E901342569CB
:10C2C000A26801332B449B1A8B420CD30A44A26010
:10C2D00083689A68DA608068FFF772FAB0FA80F0D3
:10C2E0004009C00038BD042038BD00BF10B58468C7
:10C2F0002269A3689B1A8B420AD30A44226183688D
:10C300001A695A6180680430FFF766FA002010BD90
:10C31000042010BD01600B6843604A68934208BF67
:10C3200000234360704700BF436843B102689168CF
:10C330000B4443605268934204BF0023436070473C
:10C3400070B54468064620680D4618B908E02468B0
:10C35000206828B1B368294698470028F7D120689B
:10C360002860256070BD00BF4368186808B1026886
:10C370001A60704743681868704700BF43681868C0
:10C3800018B908E00346006828B18142FAD10A686A
:10C390001A600120704770470E49A1F5947205E0BC
:10C3A00052F83330984238BF614607D28B1A1B11BE
:10C3B000914202EBC30CF3D80748704702D90CF145
:10C3C0000802F3E7DCF80400034B002808BF184616
:10C3D000704700BFC8980300C898030010B44FF01E
:10C3E0008053D3F830315A1C04BF4FF0704393F898
:10C3F000E03F062B00F03B814FF0704393F8E02FB5
:10C40000062A00F015814FF08053D3F830315C1CC0
:10C4100004BF4FF0704393F8E03F062B00F03B81E0
:10C420004FF0704393F8E02F062A00F0EC804FF0B5
:10C430008053D3F83031581C04BF4FF0704393F849
:10C44000E03F062B00F01D814FF0704393F8E02F82
:10C45000D3F8E83F062A00F0B5804FF08052D2F8BA
:10C460003031591C00F09580062B17D0A34AD2F822
:10C47000883043F47003C2F88830BFF34F8FBFF3A6
:10C480006F8F4FF08053D3F83021062A00F0E180FF
:10C490009B4B9C4A1A605DF8044B7047D2F83431CC
:10C4A000033B042B40F208814FF08053964AD3F8A7
:10C4B0000414C2F82015D3F80814C2F82415D3F8D0
:10C4C0000C14C2F82815D3F81014C2F82C15D3F8A0
:10C4D0001414C2F83015D3F81814C2F83415D3F870
:10C4E0001C14C2F84015D3F82014C2F84415D3F830
:10C4F0002414C2F84815D3F82814C2F84C15D3F800
:10C500002C14C2F85015D3F83014C2F85415D3F8CF
:10C510003414C2F86015D3F83814C2F86415D3F88F
:10C520003C14C2F86815D3F84014C2F86C15D3F85F
:10C530004414D3F83031C2F870155A1C3DD0062B84
:10C5400094D14FF080524FF08041D2F85832D2F857
:10C55000300103F04F03441CC1F8E43E00F0B28008
:10C56000062883D1D1F80034D90700F1B780D2F87A
:10C570003431033B042B04D8644AD35C002B3FF4D2
:10C5800075AF634AD2F83C3743F48063C2F83C3756
:10C590006CE74FF0704393F8E02FD3F8E83F062A9A
:10C5A0007FF464AFC3F30313033B042B3FF67CAF6C
:10C5B000584AD35C002B7FF477AF4FF0704393F869
:10C5C000E03FBCE7C3F30313033B042B3FF645AF47
:10C5D000514AD25C22B14FF080420321C2F8A0152B
:10C5E0004E4AD35C002B3FF438AF4D4B052401205D
:10C5F00000213F22C3F81046C3F88806C3F8181676
:10C60000C3F8142629E7D3F8E83FC3F30313033B29
:10C61000042B3FF60CAF434AD35C002B3FF407AF2B
:10C62000364AD2F8FC3023F08073C2F8FC30FEE6C4
:10C63000D3F8E83FC3F30313033B042B3FF6E3AE09
:10C64000394AD35C002B3FF4DEAE384B384A5A6788
:10C65000D9E6D3F83431033B042B27D94FF010220D
:10C660004FF08043D2F80822C3F8582510E74FF066
:10C670008053304AD3F82433C3F30423C2F840353F
:10C68000BAE64FF080430022C3F80C21C3F8102112
:10C69000C3F83825D8E64FF080534FF08042D3F8E6
:10C6A0004432C3F34233C2F83C35B9E6224AD35C84
:10C6B000002B3FF4EDAED1E7164AD35C002B7FF49C
:10C6C000F3AE3EE74FF0704393F8E03F062B7FF464
:10C6D000CDAED1F80034DB077FF5C8AE4FF0805304
:10C6E0004FF08041D3F830216FF00100C1F8000411
:10C6F000062AD3F834313FF43CAFB7E600ED00E052
:10C70000002C00200090D00300C00040E4980300FB
:10C7100000100040EC980300F4980300F498030024
:10C7200000500040F4980300F498030000C0074054
:10C730000DF0ADBA00300140DC9803004FF0A0438B
:10C74000D3F80405C043C00F704700BF4FF0A043AB
:10C750004FF00042C3F80C25704700BF4FF0A043D4
:10C760004FF00042C3F80825704700BF4FF0A043C8
:10C770004FF00042C3F80825704700BF4FF0A043B8
:10C780004FF00042C3F80C25704700BF4FF0A042A5
:10C79000D2F80435D94301F0004103F00043C2F858
:10C7A0000815C2F80C357047052807D0062807D0B1
:10C7B000072814BF4FF0FF30022070470020704759
:10C7C00001207047014B185C704700BFFC980300C4
:10C7D000C20708D54FF0A04303214FF00042C3F831
:10C7E0007C17C3F80825830708D54FF0A0430C2217
:10C7F000C3F81427C3F81827C3F81C27704700BFD5
:10C8000042DF704743DF704710B568B90E4CA3682C
:10C81000012262703BB1D3E900230020A260984757
:10C82000A368002BF7D110BD0128FCD1064C236969
:10C83000A070002BF7D0D3E9002301202261984794
:10C840002369002BF7D110BDD834002070B910B582
:10C85000074CA368012262703BB1D3E9002300209A
:10C86000A2609847A368002BF7D110BD704700BFA6
:10C87000D834002030B5012883B004D0032821D05B
:10C88000B0B103B030BD294C00230DF107008DF885
:10C890000730FEF7DBFC23786BB3E3689DF80700F5
:10C8A00001221344E360A270FEF7F6FC03B030BD32
:10C8B0001F4B0122C3F88020BFF34F8FBFF36F8F50
:10C8C00003B030BD194C00F03BF900230DF1070017
:10C8D0008DF80730FEF7BAFCE368013BE360E368DC
:10C8E0001BB9144BD3F80054C5B19DF80700FEF7EF
:10C8F000D3FC03B030BD10486360A3602361E360E4
:10C9000000F012F903F0E0FF60B10A4A012323703E
:10C91000D2F80024002AC0D0A370BEE700F052F97C
:10C92000A570E2E700F00CF9EFE700BFD834002073
:10C9300000E100E00000014009C8010038B50E4CDC
:10C94000237843B185250D4BD3F800340BB1012377
:10C95000A370284638BD0A486360A3602361E36082
:10C9600000F0E2F8054603F0AFFF10B10123237099
:10C97000E9E700F0E5F8F9E7D834002000000140CD
:10C9800009C8010030B51A4DAB7883B004469BB19D
:10C9900010B143680120984700230DF107008DF87E
:10C9A0000730FEF753FCEB689DF807000133EB609E
:10C9B000FEF772FC03B030BD03F0FF020DF107007B
:10C9C0008DF80720FEF742FC64B12A6942B1944217
:10C9D00008D0134601E09C4204D01B68002BFAD11A
:10C9E00022602C61EB68002BDDD100F0BBF8DAE7A8
:10C9F000D834002030B51D4D6B7883B004469BB110
:10CA000010B143680020984700230DF107008DF80E
:10CA10000730FEF71BFC6B689DF8070001336B6065
:10CA2000FEF73AFC03B030BD03F0FF020DF1070042
:10CA30008DF80720FEF70AFC64B1AA6842B194425F
:10CA400008D0134601E09C4204D01B68002BFAD1A9
:10CA50002260AC606B68002BDDD103F035FF10B9AC
:10CA600000F0C6F8D7E7FFF7CBFED4E7D8340020B4
:10CA700070B5154C82B000230DF107008DF807301A
:10CA8000FEF7E4FB6368013B636065682DB19DF8C8
:10CA90000700FEF701FC02B070BD03F015FF06466B
:10CAA00040B900F0B5F89DF807006670FEF7F4FB9A
:10CAB00002B070BDFFF7A6FE9DF807006570FEF797
:10CAC000EBFB02B070BD00BFD8340020014B1B68E7
:10CAD000184700BFEC340020114B98421DD110B50F
:10CAE00082B000230DF107008DF807300C46FEF7E9
:10CAF000ADFB0C4B1A794AB99DF807001C60012266
:10CB00001A71FEF7C9FB002002B010BD9DF80700A6
:10CB1000FEF7C2FB112002B010BD0020704700BF1D
:10CB200000200040EC340020044A137923B901218D
:10CB3000106091801846704785207047F4340020BB
:10CB4000074B1A68D20704D4C02283F800230122BD
:10CB50001A604FF080430122C3F81825704700BFC8
:10CB600000E100E010B44FF080430022C3F804213C
:10CB700083B0D3F804210192104901980222C3F82E
:10CB80000423D1F8FC000E4A40F08073C1F8FC3059
:10CB9000146844F001031360516853685B1AB3F5DD
:10CBA0000A5FFAD3054914604FF080430122C1F8AF
:10CBB000FC009A6003B05DF8044B704700ED00E0A4
:10CBC000001000E04FF0804202210023C2F8081359
:10CBD00082B0C2F80431D2F80431019301230199E3
:10CBE000D360D2F81834DB03FBD402B0704700BF27
:10CBF0004FF080430022C3F8002182B0D3F8002117
:10CC0000019201990122C3F804231A6002B070470F
:10CC10004FF0804201230021C2F8083382B0C2F8ED
:10CC20000011D2F80011019101995360D2F80C342F
:10CC300003F00113B3F1011FF8D0024B00225A7127
:10CC400002B07047F434002010B54FF0804382B03A
:10CC5000D3F8002162B10021164AC3F80011D3F8BD
:10CC60000011507900910121009CC3F80813A8B16C
:10CC70004FF08043D3F80421CAB10022C3F8042145
:10CC8000D3F80421019202210A4A0198C3F808133B
:10CC90001368012002B0BDE81040184713685171B5
:10CCA00098474FF08043D3F80421002AE5D102B021
:10CCB00010BD00BFF434002030B5234C94F8583038
:10CCC00083B0002B3CD16FF02F0004F1300304F14E
:10CCD000500C001B4FF0FF31C21821FA02F2D207AC
:10CCE00048BF197001339C45F6D14FF0FF33042241
:10CCF000002116482365C4E90033C4E90233C4E9BE
:10CD00000433C4E90633C4E90833C4E90A331BF029
:10CD1000C7FD0F4BC02283F8062340221A600D4B3B
:10CD20000020C3F87C01D3F87C210192019D4FF0D3
:10CD30000042012184F85810C3F8042303B030BD29
:10CD4000082003B030BD00BFFC3400205035002067
:10CD500000E100E000600040034B93F85800003809
:10CD600018BF0120704700BFFC34002070B5754B20
:10CD700003EB000E9EF930C0BCF1000F55DA91F8BC
:10CD800002C01CF0020FCCF3400541D11C6A0134F3
:10CD900000F0AA805C6A013400F0C1804FF0080EF8
:10CDA0000C244FF00A0C53F82C60013641D00EF1E0
:10CDB000030CA4452AD253F82C60013639D00EF169
:10CDC000040EA64522D21E69013630D05E690136B6
:10CDD00000F097809E69013600F09680DE6901368A
:10CDE00000F09580082C11D01C6A013400F0A3805B
:10CDF0005C6A013400F082809C6A013400F09E80FD
:10CE0000DC6A013408BF4FF00B0C12D0042070BD57
:10CE10001C6801347ED05C68013400F087804FF0DC
:10CE2000000E08244FF0020CBDE7082070BD4FF043
:10CE3000040C1C1843F82C204FFA8CF284F8302094
:10CE4000002D57D091F802C01CF0040F18D11CF02F
:10CE5000010F3FD14C784FF0A04500F5E076A400DB
:10CE600045F82640384EC50800F0070E16F805C0F4
:10CE7000012404FA0EF444EA0C04745591F802C03B
:10CE80001CF0020F1BD0930003F1804303F5C04355
:10CE90000978D3F8104524F4473424F4407402028E
:10CEA000C3F810450904D3F8100502F4F85201F450
:10CEB00040310A430243C3F81025002070BD083AF0
:10CEC00043FA82F2097892F8503043EA811382F8EB
:10CED0005030F2E7840004F1A044D4F8005725F064
:10CEE0000205C4F80057BDE74FF0080C1A628EF82F
:10CEF00030C062469C448CF84800A3E74FF0090C10
:10CF000097E74FF0050C94E74FF0060C91E74FF0D0
:10CF1000070C8EE71A6000228EF8302092E74FF05F
:10CF2000090C5A628EF830C06246E3E75A6001226B
:10CF30008EF8302086E74FF0080C7AE74FF00A0CA5
:10CF400077E700BFFC3400205035002030B42E4C71
:10CF500004EB000C82B09CF93030072B1EDD083B3F
:10CF600044FA83F393F850309B09032B41D0012BF3
:10CF70000CBF4FF400334FF44033800000F1A04069
:10CF8000D0F8002722F44032C0F80027D0F800275C
:10CF90001343C0F8003702B030BC7047DAB2072A3A
:10CFA000F9D8980000F1804003F1400200F5C0403C
:10CFB00052B29200D0F8105592B202F1804202F5BE
:10CFC000C04245F00105C0F81055002010601268FD
:10CFD0000192019A0029DED09CF9302054F82220D9
:10CFE000002AD8D00949012202FA03F3C1F8043318
:10CFF000D1E74FF0A043D3F81035C34003F001034D
:10D0000002331B04B9E700BFFC340020006000407D
:10D010004FF0A043D3F8103523FA00F000F00100E0
:10D02000704700BFF0B585B01D4A00230193D2F8C8
:10D030000011012900F0EB811E46194BD3F80421A1
:10D04000012A00F0D581164BD3F80821012A00F0FF
:10D05000BD81134BD3F80C21012A00F0A881104B9D
:10D06000D3F81021012A00F093810D4BD3F814213D
:10D07000012A00F07E810A4BD3F81821012A00F022
:10D080006981074BD3F81C21012A0BD0044BD3F83C
:10D090007C21012A00F0E38126BB05B0F0BD00BF72
:10D0A00000600040D3F804231206EFD50022C3F835
:10D0B0001C21D3F81C110291D3F87C11029801298C
:10D0C00046F080060ED1C3F87C21D3F87C21039270
:10D0D0004FF0A043039AD3F820250192C3F82025EE
:10D0E00046F00046C14F00240125A30003F1804310
:10D0F0002E4203F5C0434FEA45050BD0D3F8100587
:10D1000057F82420D3F81015C0F30420C1F30141CF
:10D1100002B190470134082CE7D1002EBDDAB34D9F
:10D1200001264FF0A04495F950305F1C3FD0C3F367
:10D13000C20101F110020DEB020103F0070211F828
:10D140000C7C06FA02F21742D9B203F03F002ED04F
:10D15000830003F1A04306FA00F7D3F80027D3F8C1
:10D1600000C72CF4403CC3F800C7C2F30142D3F817
:10D1700000E7022A0CBF4FF4403C4FF4003C4CEA5D
:10D180000E0CC3F800C72B18C4F8207593F9303083
:10D1900055F823305BB18909032900F05481022A34
:10D1A00000F04E81032A02D1022900F04C8195F94A
:10D1B0005130581C3FD0C3F3C20101F110020DEBF6
:10D1C000020103F0070211F80C7C06FA02F2174282
:10D1D000D9B203F03F002ED0830003F1A04306FA3A
:10D1E00000F7D3F80027D3F800C72CF4403CC3F86D
:10D1F00000C7C2F30142D3F800E7022A0CBF4FF484
:10D20000403C4FF4003C4CEA0E0CC3F800C72B180E
:10D21000C4F8207593F9303055F823305BB1890993
:10D22000032900F01581022A00F00F81032A02D1A0
:10D23000022900F00D8195F95230591C3FD0C3F3FB
:10D24000C20101F110020DEB020103F0070211F817
:10D250000C7C06FA02F21742D9B203F03F002ED03E
:10D26000830003F1A04306FA00F7D3F80027D3F8B0
:10D2700000C72CF4403CC3F800C7C2F30142D3F806
:10D2800000C7022A0CBF4FF4403E4FF4003E4CEA68
:10D290000E0CC3F800C72B18C4F8207593F9303072
:10D2A00055F823305BB18909032900F0D680022AA2
:10D2B00000F0D080032A02D1022900F0CE8095F937
:10D2C00053305A1C3CD0C3F3C20101F110020DEBE4
:10D2D000020103F0070211F80C7C06FA02F2174271
:10D2E000D9B203F03F002BD0830003F1A04306FA2C
:10D2F00000F7D3F80027D3F800C72CF4403CC3F85C
:10D3000000C7C2F30142D3F800C7022A0CBF4FF492
:10D31000403E4FF4003E4CEA0E0CC3F800C72B18F9
:10D32000C4F8207593F9303055F8233043B189099A
:10D3300003297BD0022A77D0032A01D1022975D094
:10D34000D4F820350193C4F82035002B7FF4EBAEE0
:10D3500005B0F0BDD3F8042351067FF592AE00224C
:10D36000C3F81821D3F818310293029B46F0400607
:10D3700087E6D3F8042390067FF57DAE0022C3F83C
:10D380001421D3F814310293029B46F0200672E672
:10D39000D3F80423D4067FF568AE0022C3F8102129
:10D3A000D3F810310293029B46F010065DE6D3F8E5
:10D3B000042315077FF553AE0022C3F80C21D3F8E0
:10D3C0000C310293029B46F0080648E6D3F804238A
:10D3D00057077FF53EAE0022C3F80821D3F8083185
:10D3E0000293029B46F0040633E600BFFC340020A3
:10D3F000D3F8042392077FF526AE0022C3F8042158
:10D40000D3F804310293029B46F002061BE6D2F8E1
:10D41000046316F001063FF410AEC2F80031D2F8F2
:10D4200000310293029B08E6012989D19847D4F87C
:10D4300020350193C4F82035002B7FF474AE87E7C4
:10D4400001297FF4B4AE9847B1E601297FF4F3AE29
:10D450009847F0E601297FF432AF98472FE7002282
:10D46000C3F87C21D3F87C2103924FF0A043039AA8
:10D47000D3F820250192C3F82025002E3FF44FAEAB
:10D480002EE600BF164AD2F8183103B310B40021BB
:10D49000144BC2F81811D2F81811DA7F83B0FF2AA2
:10D4A0000191019908D0997F91B101214FF0A040DD
:10D4B00001FA02F2C0F80C25D3E9004100220A4823
:10D4C0005A771A72234603B05DF8044B1847704729
:10D4D00001214FF0A04001FA02F2C0F80825EBE765
:10D4E0000030004058350020603500202DE9F04F15
:10D4F0000779764E07EBC709924606EB890283B09F
:10D500000C46117F01929B46FB000093002940F0DE
:10D51000B280D0F800806E4905464046FFF7DCFA3D
:10D52000002840F0C6804FEA8909019A46F809A010
:10D53000C2F804B0227B2178009B012A4FF001023F
:10D5400002FA01F24FF0A0414FF0A04C94BFC1F895
:10D550000C25C1F80825227802F5E07201214CF86B
:10D5600022106278FF2A00F08A809140CCF80C15D6
:10D5700002F5E0714FF0030E4CF821E094F802C080
:10D58000BCF1FF0F00F083800CF5E0794FF0A04173
:10D59000E6464FF0040C41F829C094F802C0D919AE
:10D5A00006EB810181F820C094F803C081F81FC008
:10D5B000BCF1FF0F19D0217900296BD1012101FAAB
:10D5C0000CF14FF0A04CCCF80815E1784FF0A04CCE
:10D5D00001F5E0714FF003094CF82190D91906EBE1
:10D5E000810194F804C081F81EC02178C8F808159C
:10D5F000C8F80C25C8F810E5A268C8F82425627B95
:10D60000217B003A18BF012202295CD0032957D0A0
:10D61000012952D0C8F85425A279C8F8C02507229C
:10D62000C8F80025BAF1000F1BD02A68617942F3CF
:10D630000732002A36DB02F16042490102F56142FD
:10D64000C9B282F800132A6842F30732002A08DBC5
:10D65000204C5509012102F01F0201FA02F244F8A0
:10D6600025203B4406EB83060022012372773377A3
:10D6700003B0BDE8F08F082003B0BDE8F08F94F848
:10D6800002C0BCF1FF0F4FF0FF327FF47DAF4FF0CF
:10D69000FF3E84E7012101FA0CF14FF0A04CCCF8D9
:10D6A0000C1592E70C4C02F00F024901C9B2A154CB
:10D6B000C9E7112003B0BDE8F08F42F00202A9E7EC
:10D6C00042F00602A6E742F00402A3E75835002024
:10D6D00085D4010000E100E014ED00E02DE9F04701
:10D6E0000479534D04EBC403964605EB83028C4644
:10D6F000517F82B0002940F08E809B000646EB5897
:10D700004FEAC40823B11EF0140F04BF012353775E
:10D7100008EB040705EB87079CE80F0097F81FA0AC
:10D7200007F10C09BAF1FF0F89E80F0009D0BB7FA0
:10D73000002B5ED001234FF0A04203FA0AF3C2F897
:10D740000835DCF80020336822B102F06041B1F105
:10D75000005F56D1DCF8081021B101F06041B1F151
:10D76000005F4ED1DCF80410C3F84425C3F8481517
:10D77000DCE90212C3F83415C3F838250022C3F8D7
:10D780001821D3F818210192019A1EF0010218BF46
:10D790000122C3F850251EF0020218BF01221EF01C
:10D7A000080FC3F8402504BF01221A6108EB0402E8
:10D7B00055F822204AB140221EF0040F14BFC3F8CE
:10D7C0000823C3F80423002022E0D3F81821002AFC
:10D7D000FBD0A04405EB8805EB7FFF2BF3D0AA7F9D
:10D7E000EAB101224FF0A04102FA03F3C1F80C356F
:10D7F000E9E701234FF0A04203FA0AF3C2F80C351F
:10D800009FE7A04405EB8808002388F81D3010200E
:10D8100002B0BDE8F087112002B0BDE8F087012218
:10D820004FF0A04102FA03F3C1F80835CBE700BF7F
:10D830005835002010B5084CD4F8003182B04BB1F7
:10D84000064B1B6898470023C4F80031D4F8003118
:10D850000193019B02B010BD000001407C35002007
:10D860002DE9F04182B0002874D01546002A00F05E
:10D8700081800768002F00F08C8073B34668D6F86B
:10D880000480B3FBF8F608FB1636002E35D111F0F4
:10D89000030F41D1AD074ED1C568A94211D2454B06
:10D8A0004548464A4649C01A1024C008A040454B86
:10D8B000009440F00100FCF791FA102002B0BDE89E
:10D8C000F081046901F1FF3E9E44A645E7D8FC685B
:10D8D000A44602B0BDE8F0416047364B36483A4AAC
:10D8E0003749C01AC00809240004364B009440F0A0
:10D8F0000100FCF773FA0920E0E72E4B2E48334A6B
:10D900002F49C01AC008092400042E4B009440F08F
:10D910000100FCF763FAEEE7264B27482C4A28491A
:10D92000C01A1024C008A040264B009440F001000B
:10D93000FCF754FAC1E71F4B1F48264A2049C01A7A
:10D940001024C008A0401F4B009440F00100FCF7D9
:10D9500045FAB2E7174B18481F4A1949C01AC008C0
:10D960000E240004174B009440F00100FCF736FA37
:10D970000E20A3E70F4B1048184A1149C01AC008DF
:10D980000E2400040F4B009440F00100FCF726FA2F
:10D99000EEE7084B0848124A0949C01AC008082493
:10D9A000000440F00100074B0094FCF717FA2046F2
:10D9B00084E700BF142E0600842E06002C9A030074
:10D9C00030990300E09A030078990300C49903009A
:10D9D000F0990300089A030028990300BC990300FA
:10D9E00064990300F0B583B0002849D00568002D84
:10D9F0004FD02AB346683668771E0F4231D1C768C8
:10DA0000B94210D2274B2848284A2949C01A102465
:10DA1000C008A040274B009440F00100FCF7DEF95D
:10DA2000102003B0F0BD046901F1FF3E06FB02EED9
:10DA3000A645E7D82C69A44603B0BDE8F04060478E
:10DA4000184B19481C4AC01AC0081A4B0924000474
:10DA50001749009440F00100FCF7C0F9204603B0DC
:10DA6000F0BD104B1048154A1149C01A1024C008C7
:10DA7000A040104B009440F00100FCF7AFF9CFE755
:10DA8000084B09480E4AC01AC0080A4B0E2400046D
:10DA9000DEE7044B04480B4AC01AC008054B0824B3
:10DAA0000004D5E7142E0600842E06007C9A03009D
:10DAB00030990300CC9A030078990300549A03002C
:10DAC000289903006499030029DF704728DF704715
:10DAD000034B187A0122B0FA80F05A74400970475B
:10DAE0008835002030B53D4C237A87B0002B3CD0E0
:10DAF0003B4D2868022323720379002B3FD0012B72
:10DB000025D002689368C3B10023CDE902330093A6
:10DB1000049303230193836805930379002B4FD06B
:10DB2000012B07D102238DF80030C36841690491AD
:10DB30001B0302939368684698472A492A480023A2
:10DB40002372636007B0BDE83040FDF7B5BDD0E992
:10DB500003201044FFF7BAFF28B311282CD02868FF
:10DB600002689368002BCFD1E7E71E491E481C4D81
:10DB7000FDF770FD28600028BCD160601EE0D0E990
:10DB80000523D21AB2F5805F28BF4FF48052D0E946
:10DB900003109208012A38BF012219441844FFF7E4
:10DBA00093FF0028D9D1237C43B90146022007B056
:10DBB000BDE8304000F01AB80123237207B030BD31
:10DBC00001238DF800300369C16802934369CDE9F0
:10DBD0000313684693689847AFE700BF8835002075
:10DBE00084350020803500209C350020831E012BC9
:10DBF00040D810B5354C237A86B0002B38D0022B94
:10DC00002FD103283CD0324B00221B68E2601A79E6
:10DC1000002A4ED0012A24D1D3E9042101328A42BC
:10DC20001A611ED10020207205E0294B00221B68DA
:10DC3000E26022720D2019688A6872B10022CDE973
:10DC40000222009204929A68019005921A7932B3E6
:10DC5000012A1BD08B68684698471E491E48FDF76D
:10DC60002BFD637C3BB906B0BDE81040FFF73ABF1F
:10DC700006B010BD704706B0BDE8104002F014BEFB
:10DC8000E3680133082BD0D8E360EAE702228DF87D
:10DC90000020DA685869049012030292DAE7012240
:10DCA0008DF800201A690292DA685B69CDE90323D6
:10DCB000D0E7D3E90512881AB0F5805F94BF121837
:10DCC00002F5805291429A61CBD1ABE788350020B2
:10DCD00084350020803500209C35002000F0FD03B5
:10DCE000012B00D0704730B53E4CA0F10100B0FAD6
:10DCF00080F0237A0022400987B062742074002BE0
:10DD000050D0394D2868022323720379002B53D059
:10DD1000012B0DD1D0E903201044FFF7D7FE0028D6
:10DD20002CD0112803D10123237207B030BD2868FD
:10DD3000026893687BB10023CDE90233009304931A
:10DD4000032301938368059303790BB3012B0CD054
:10DD500093686846984725492548002323726360E5
:10DD600007B0BDE83040FDF7A7BC02238DF80030B6
:10DD7000C368416904911B030293E9E7237C002BEC
:10DD8000D3D10146022007B0BDE83040FFF72EBFD7
:10DD900001238DF800300369C16802934369CDE91E
:10DDA0000313D5E7114912480F4DFDF753FC2860C6
:10DDB0000028A8D16060B8E7D0E90523D21AB2F5EF
:10DDC000805F28BF4FF48052D0E903109208012AE7
:10DDD00038BF012219441844FFF776FE0028A0D16D
:10DDE000CCE700BF88350020843500208035002036
:10DDF0009C3500202DE9F041436888461BB1394A23
:10DE0000D468A34237D20024374FA8F800404FF619
:10DE1000FF767B6803F5805C083363450CD30134DF
:10DE2000A4B2042CA8F8004007F11407F1D1002097
:10DE30001FE09445F3D913461A680132EFD05A888F
:10DE4000033203EB82029445E9D3B3F804E0B6450C
:10DE5000EFD01D88002DECD09D68691CE9D00168C9
:10DE60008D4201D01346D8E7204A436013890381CD
:10DE70000120BDE8F08112699342C4D813F0030277
:10DE8000C1D11A4C05892489A542BCD105689C687A
:10DE9000A542B8D114484468A34203D904F580547C
:10DEA000A34216D38269934203D902F5805293426A
:10DEB00015D3C26A934203D902F5805293420CD320
:10DEC000026C9342B3D902F58052934238BF0322C9
:10DED000ADD2A8F800200120CBE70222F9E7012209
:10DEE000F7E700BFF02D0020E4350020CC350020FE
:10DEF0002DE9F04FDFF84883DFF848A3DFF84893B7
:10DF00008BB00446D8F80050002D00F0BA802A7873
:10DF1000531E052B00F25482DFE803F03E2121035B
:10DF2000034B002C40F0CF802B79012B00F0768240
:10DF3000022B00F06D82002B00F05282CDE90744E5
:10DF40000594099405AE48F20E6406942B78023BC2
:10DF5000042B48D8DFE803F0758169624400B5F806
:10DF600014B0002C40F09580AA4EA97D0BEB8B03DA
:10DF700006EB83034FEA8B0718895C6804EB800487
:10DF8000062900F27284DFE811F030019901840162
:10DF9000AC012501BD016101002C40F018822B79F4
:10DFA000032B00F2B780DFE813F0E700F600D9009A
:10DFB0009700002C40F08780974A937B002B00F05D
:10DFC000B48013789473013B062B00F2F981DFE8EB
:10DFD00013F0FA02A702D701C701F701E902B50160
:10DFE00005238DF814308D4C04F1100554F8043BD2
:10DFF000304603B19847A542F8D15146002448461F
:10E00000C8F80040FDF758FB85480121FDF7B4FB37
:10E0100000287FF477AF0BB0BDE8F08F04238DF8B4
:10E020001430EB88ADF82030DDE703238DF8143091
:10E03000EB88ADF820302B89ADF82230EB680793E0
:10E04000D1E701238DF814302B89ADF82030AB884F
:10E05000ADF82230EB680793C5E702238DF8143042
:10E060002B89ADF82030AB88ADF82230EB680793F0
:10E07000AB7DA3F10603B3FA83F35B098DF824307B
:10E08000B1E751464846FDF7E5FA0546C8F80000F5
:10E090003DE7AB7D5F4E022B08D90BEB8B0206EB05
:10E0A0008202EB88118903330B4413814FEA8B07FB
:10E0B00007EB0B02EB8806EB8202C3F57F43518925
:10E0C000FD330B445381002305AE0593C6E90233AB
:10E0D00033614FF4064438E74F4B4E4E5B88514C4A
:10E0E00003EB830306EB830200202871216806F806
:10E0F0002300009053682360A3881381022351609A
:10E10000A380494A49480823FFF7AAFB002882D088
:10E11000D8F80050464A05AE002305935360C6E97F
:10E120000233336148F20D640FE73B4B1B78072B3A
:10E130003FF649AF01A252F823F000BF79E6010093
:10E14000C7DF0100C7DF0100C7E601004BE60100A1
:10E1500037E3010037E301001FE70100314A33488C
:10E160001168002302242B7194800122FFF73AFCEE
:10E1700000283FF450AFCBE72A4B2E4A19682B48B2
:10E1800001232B71002300930823FFF769FB00286C
:10E190003FF441AFBCE71F4E3378022B00F0EC8216
:10E1A000337D022B00F00F8396F82830022B00F00D
:10E1B000E48296F83C30022B00F00783002305AE82
:10E1C0001B4A0593C6E90233012111703361536084
:10E1D0000024BAE61848AB6903601849002343607D
:10E1E000FFF708FE002800F0DA820223AB75002357
:10E1F000009304230D482146EA18FFF731FB00285D
:10E200003FF409AFAB7DD8F80020022B48F20D6433
:10E2100028D91EE0E4350020CC350020443600200B
:10E2200054360020DC350020089B0300F02D002030
:10E2300058360020109B0300B8350020B43500206C
:10E24000C8350020C4350020343600202A4641F667
:10E250001D5407EB0B0106EB8101EB8808890333A2
:10E2600003440B815F44EB8806EB87071546C3F533
:10E270007F437A89FD3313447B8105AE002341F649
:10E280001D520593944208BF1C46C6E90233336110
:10E290005BE62B699848002B0CBF01230323AB7569
:10E2A0000023009304F10801042305F10C02FFF799
:10E2B000D7FA0028A6D10BB0BDE8F08F032A14BF0F
:10E2C00006230523AB75002300938B48211D0423EF
:10E2D00005F10802FFF7C4FA002893D10BB0BDE89E
:10E2E000F08FEB882A690120A8750020009004F1C6
:10E2F0000C0181489B00FFF7B3FA002882D10BB0D4
:10E30000BDE8F08F7D4B7E4A59687E4B7A481C8869
:10E310000623AB75002300930423FFF7A1FA00281E
:10E320007FF470AF04EB840406EB840301221A74BB
:10E330000BB0BDE8F08F744A07231370724A6E4821
:10E34000002300935360714B714A19680823FFF74B
:10E3500087FA0446002C3FF45EAED8F800508CE7F4
:10E36000694B6C4E5B8803EB830306EB8302D36837
:10E37000C3B9516860480122FFF734FB0446E9E75E
:10E38000614B62485A6884885388016803330020CF
:10E390009BB201EB840100909B005748FFF760FAA5
:10E3A0000446D7E7584A544805231370574B0222B6
:10E3B0009A80196801220023FFF714FB0446C9E77D
:10E3C00005AE00230593C6E902333361BBE505AE14
:10E3D000514A002305935360C6E90233336178E65E
:10E3E00002232B71CDE9064405AEEB6805930DF1D0
:10E3F00012013046FFF7FEFC002840F0958148F2FC
:10E40000096400230593C6E90133C6E903339CE59B
:10E41000CDE907440594099405AED9E63E4B1B7837
:10E42000002B00F09D81DFF8F4B0BBF80470032FDF
:10E4300011D8384E07EB870306EB8303A646A446A4
:10E440001A78B2B10137BAB2032AABF8047003F1FB
:10E450001403F5D9644631480822002105AE1AF0AC
:10E460001FFA00230593D8F800503361C6E9023340
:10E470006BE55A68DBF8001002F58050002900F0C7
:10E480006C814A88033201EB8201814230D20293CF
:10E490000A6801322BD04A88033201EB8202904293
:10E4A00025D38C8803944FF6FF739C421CD00C88B4
:10E4B000D4B18C68013417D0EA88039C029BCBF856
:10E4C0000010A242DDD1002300930D4A0A48042324
:10E4D000FFF7C6F9002840F04C8107EB870706EBF1
:10E4E00087060123337496E5904200F26181029B16
:10E4F000CBF800E0A6E700BFF02D0020B8350020E3
:10E50000049B0300B4350020CC350020DC3500200E
:10E51000109B0300E435002058360020AC35002065
:10E52000AB4BAC4E58885C6800EB800306EB830372
:10E530005968830001F58055002C40F0D98001F125
:10E540000802AA4280F0DB80146801344FF6FF779E
:10E5500000F0D5805488033402EB8404AC4200F20E
:10E56000CE80B2F804C0BC4500F024811788002F8B
:10E5700000F020819768013700F01C81944D964887
:10E580006A600021538800918488016893480333AE
:10E5900001EB84019BB203242C709B00FFF760F910
:10E5A0000446D7E68A4B8B4E5A889300134406EBF9
:10E5B00083038B4A59688948002300930823FFF797
:10E5C0004FF90446C6E6824B9B7A4BB1814E804A96
:10E5D000F0680023937218B9337C002B40F040811F
:10E5E0007B4BDB7A53B17B4E794A0023D372336A7B
:10E5F00023B996F82430002B40F0F880744B1B7B35
:10E6000053B1744E724A00231373736B23B996F897
:10E610003830002B40F023816D4B5B7B53B16D4E46
:10E620006B4A00235373B36C23B996F84C30002B1C
:10E6300040F01881664A05AE002305931370C6E9C1
:10E640000233538053603361C2E5614D614E6A8885
:10E65000614902EB820306EB830308685C6858603B
:10E660008888188102200C60888000211974062394
:10E670002B7002FA00F399E7564E554C3378317DF2
:10E6800096F82800B3FA83F300225B09B1FA81F10E
:10E6900049096280A27363F3070261F30F2296F8BF
:10E6A0003C10B0FA80F04009B1FA81F160F31742F2
:10E6B000490961F31F62C4F80A20228901322281CC
:10E6C0000122227081E7424F424E7888424A7C689C
:10E6D00000EB800306EB8303658859689388033356
:10E6E0002B44938002233B7001F5805500FA03F31D
:10E6F0006288033204EB8202AA42FFF425AF03448E
:10E7000006EB8303DB68002B7FF44CAE304C3348C0
:10E71000042222700122FFF765F904461AE62C4A0A
:10E7200001231370937A50E706992E4A8B88EB8069
:10E730000B882B81294800940423BDF81240FFF771
:10E740008FF800283AD1234B04EB840403EB8403B5
:10E7500001221A740BB0BDE8F08F02F1080194E6B3
:10E760002146214808221AF09BF848F2016405AEC0
:10E7700077E648F20D64FAE7002303EB830306EB28
:10E78000830216485168002206F8232000920823CD
:10E79000134AFFF765F800283FF43DACB8E4CDE933
:10E7A00007000590099005AE48F20964FFF7CDBB5C
:10E7B00011466DE6AC42A2D22246C5E6D8F800501A
:10E7C00048F20D641DE60123D7E70323D5E700BF18
:10E7D000CC350020E4350020DC350020F02D002071
:10E7E000089B0300049B0300AC3500200120034676
:10E7F000204A538000EB800306EB8303526859687C
:10E80000830001F580543AB35588033502EB850245
:10E8100094427FF674AF156801354FF6FF773FF4E9
:10E820006EAF5588033502EB8505AC42FFF467AF48
:10E83000B2F804C0BC4505D017881FB197680137EE
:10E840007FF49CAEAC427FF65AAF2A464FF6FF7774
:10E8500015680135E5D152E701F10802D8E7022039
:10E860000346C5E703200346C2E72A4648F20E6482
:10E87000EFE400BFCC3500204068FFF739BB00BF94
:10E880000220FDF783BF00BF2DE9F04706460D4685
:10E89000FDF78AFF022805D8012D04461AD0022D63
:10E8A00027D00DB1BDE8F0871B48FCF791FC1B4B4E
:10E8B0001B4A04EB44010B44125D9D78AA42F1D13E
:10E8C000002DEFD0174B1B68002BEBD02846BDE87E
:10E8D000F0471847114F00EB4003FA18FD5C5378DE
:10E8E0004FEA40085BB9A04447440D4BBA781A552B
:10E8F000E6E70A4B00EB400423445D78E0E7DFF8ED
:10E90000289005484A464FF48041FCF705FC002852
:10E91000E9D189F80060E6E7082C00206436002081
:10E9200060360020703600206336002010B5007875
:10E93000FDF73AFF02280BD8064B00EB40000344DA
:10E94000587828B1044B1B6813B1BDE81040184734
:10E9500010BD00BF643600207036002038B5A34DCE
:10E960002B7804463BB1A24B1B7800202870002B6B
:10E9700046D0FDF7F3FE172C61D8DFE814F0E10074
:10E98000630063009E00AA00B600C800F0005000BB
:10E9900044005000440089001800180018001800B6
:10E9A0001800D6008F007A00F7005C005C009148E8
:10E9B000FCF70EFCD4F11104054600F0018100289B
:10E9C00040F0FE80012C14D0C82303FB04F4294638
:10E9D0004FF400434FF47A70C4FB03014FF4FA6222
:10E9E00000231AF089FA2A4601468248FCF794FB74
:10E9F00005460220FDF7AAFE7D4B01221A701FE09A
:10EA0000FDF7B4FEB7E701202870FDF7BFFEBDE8B3
:10EA10003840794800224FF40051FCF77DBB0120BB
:10EA20002870FDF7B3FEBDE838407348002240F27D
:10EA30006661FCF771BBFDF7A1FE704B1C700025F1
:10EA4000284638BD0020FDF779FE002840F09E8062
:10EA5000FDF77CFE40F6CD4141F69A13022C18BF1B
:10EA60001946664B1C70BDE8384063480022FCF72D
:10EA700053BB5F4B1B78002B00F0AC800020FDF7F0
:10EA80006DFE0120FDF762FE5C4B14221A70D6E782
:10EA9000FDF774FE594B0C221A70D0E7544B1B78CB
:10EAA000002B00F094800020FDF758FE0020FDF7B9
:10EAB0004DFE524B13221A70C1E70020FDF73EFEB7
:10EAC000002877D1FDF742FE40F6CD414B4B0324A1
:10EAD000C8E70020FDF732FE002865D1FDF736FEBD
